:100000000C9465050C9482050C9482050C94820571
:100010000C9482050C9482050C9482050C94820544
:100020000C9482050C9482050C9482050C94820534
:100030000C9482050C9482050C9482050C94820524
:100040000C9482050C9482050C9484050C94820512
:100050000C9482050C9482050C9482050C94820504
:100060000C9482050C948205293A2000746F6F204D
:100070006D616E7920617267756D656E74732800AD
:1000800045786974696E670A0078004E6577206666
:10009000696C65206E756D6265722072657365743A
:1000A00020746F207A65726F0A003400436F6D6DA3
:1000B000616E642070726F6D70740A00330041705D
:1000C00070656E642066696C65206C6F6767696E29
:1000D000670A0032004E65772066696C65206C6F98
:1000E0006767696E670A003100782920457869746E
:1000F0000A003429205265736574206E6577206686
:10010000696C65206E756D6265720A003329204343
:100110006F6D6D616E642070726F6D70740A003265
:100120002920417070656E642066696C65206C6F73
:100130006767696E670A003129204E657720666916
:100140006C65206C6F6767696E670A004368616E53
:10015000676520746F3A0A000A00436F6D6D616E27
:100160006400417070656E642066696C65004E6560
:10017000772066696C650043757272656E742062E3
:100180006F6F74206D6F64653A20000A5379737441
:10019000656D20436F6E66696775726174696F6E15
:1001A0000A000A45786974696E670A0078000A4790
:1001B0006F696E6720746F20313135323030627074
:1001C000732E2E2E0A0036000A476F696E67207460
:1001D0006F2035373630306270732E2E2E0A003580
:1001E000000A476F696E6720746F203139323030F2
:1001F0006270732E2E2E0A0034000A476F696E67F4
:1002000020746F20393630306270732E2E2E0A0023
:1002100033000A476F696E6720746F2034383030BE
:100220006270732E2E2E0A0032000A476F696E67C5
:1002300020746F20323430306270732E2E2E0A00FC
:100240003100782920457869740A00362920313137
:1002500035323030206270730A0035292035373648
:100260003030206270730A00342920313932303046
:10027000206270730A0033292039363030206270D2
:10028000730A0032292034383030206270730A003B
:1002900031292032343030206270730A00436861A3
:1002A0006E676520746F3A0A003030206270730AFE
:1002B00000313135320035373600313932003936C8
:1002C0000032340034380043757272656E743A201F
:1002D000000A4261756420436F6E666967757261DA
:1002E00074696F6E3A0A00626175640909093A20FF
:1002F0004D656E7520746F20636F6E6669677572E9
:1003000065206261756420726174650A00736574AA
:100310000909093A204D656E7520746F20636F6E70
:100320006669677572652073797374656D20626F95
:100330006F74206D6F64650A000A4D656E75733ABF
:100340000A0073796E630909093A20456E73757264
:10035000657320616C6C20627566666572656420E9
:1003600064617461206973207772697474656E20AA
:10037000746F2074686520636172640A00696E6935
:10038000740909093A205265696E697469616C697A
:100390007A657320616E642072656F70656E73207C
:1003A000746865206D656D6F727920636172640A8F
:1003B000006469736B0909093A2053686F777320E9
:1003C00063617264206D616E7566616374757265D8
:1003D000722C207374617475732C2066696C65735C
:1003E000797374656D2063617061636974792061EC
:1003F0006E6420667265652073746F726167652034
:1004000073706163650A0073697A65203C66696C84
:10041000653E09093A2057726974652073697A65E7
:10042000206F662066696C6520746F207465726D3C
:10043000696E616C0A0072656164203C66696C6576
:100440003E203C73746172743E203C6C656E677430
:10045000683E09093A205772697465732041534315
:100460004949203C6C656E6774683E207061727407
:1004700073206F66203C66696C653E20746F207443
:100480006865207465726D696E616C207374617249
:1004900074696E67206174203C73746172743E2EBF
:1004A000204F6D6D6974203C73746172743E2061DD
:1004B0006E64203C6C656E6774683E20746F2072B9
:1004C0006561642077686F6C652066696C650A00F9
:1004D000636174203C66696C653E09093A20577275
:1004E0006974657320612068657864756D70206F2C
:1004F00066203C66696C653E20746F2074686520D8
:100500007465726D696E616C0A006C730909093A51
:100510002053686F77732074686520636F6E74650D
:100520006E74206F66207468652063757272656EE4
:1005300074206469726563746F72792E20557365D7
:100540002077696C646361726420746F20646F202B
:10055000612077696C6463617264206C697374698B
:100560006E67206F662066696C657320696E206314
:10057000757272656E74206469726563746F7279E6
:100580000A006364202E2E09093A204368616E67D1
:10059000657320746F206C6F776572206469726573
:1005A00063746F727920696E20747265650A0063E6
:1005B00064203C6469726563746F72793E09093A1C
:1005C000204368616E6765732063757272656E742F
:1005D00020776F726B696E67206469726563746FF0
:1005E000727920746F203C6469726563746F7279EC
:1005F0003E0A006D64203C6469726563746F7279B1
:100600003E093A2043726561746573206120646914
:10061000726563746F72792063616C6C6564203CF1
:100620006469726563746F72793E0A00726D203C72
:1006300066696C653E09093A2044656C65746573AA
:10064000203C66696C653E2E205573652077696C89
:10065000646361726420746F20646F206120776925
:100660006C64636172642072656D6F76616C206F7B
:10067000662066696C65730A007772697465203C50
:1006800066696C653E203C6F66667365743E093A28
:1006900020577269746573207465787420746F20B4
:1006A0003C66696C653E2C207374617274696E6778
:1006B0002066726F6D203C6F66667365743E2E20F7
:1006C000546865207465787420697320726561646C
:1006D0002066726F6D2074686520554152542C203D
:1006E0006C696E65206279206C696E652E204669A2
:1006F0006E697368207769746820616E20656D701B
:100700007479206C696E650A00617070656E642092
:100710003C66696C653E09093A20417070656E64FB
:1007200073207465787420746F20656E64206F6622
:10073000203C66696C653E2E20546865207465789F
:100740007420697320726561642066726F6D207415
:100750006865205541525420696E2061207374727F
:1007600065616D20616E64206973206E6F74206511
:1007700063686F65642E2046696E697368206279CC
:100780002073656E64696E67204374726C2B7A20E7
:10079000284153434949203236290A006E657720A3
:1007A0003C66696C653E09093A204372656174656F
:1007B00073203C66696C653E0A00417661696C6134
:1007C000626C6520636F6D6D616E64733A0A000A36
:1007D0004F70656E4C6F672076312E350A007E00B3
:1007E0006572726F722077726974696E6720746FB8
:1007F0002066696C650A006572726F722077726993
:1008000074696E6720746F2066696C650A00657292
:10081000726F722077726974696E6720746F2066D8
:10082000696C650A006572726F722077726974690B
:100830006E6720746F2066696C650A006572726F5E
:10084000722077726974696E6720746F2066696CB4
:10085000650A006572726F722077726974696E67DB
:1008600020746F2066696C650A00216572726F7270
:10087000207365656B696E67206F6E20002165725D
:10088000726F72206F70656E696E672000756E6B97
:100890006E6F776E20636F6D6D616E643A200065D8
:1008A00072726F722073796E63696E672064697308
:1008B0006B0A0073796E63006572726F72206372E7
:1008C000656174696E67206469726563746F7279BB
:1008D0003A20006D6400617070656E64006572722C
:1008E0006F722077726974696E6720746F20666911
:1008F0006C650A006572726F72207365656B696E54
:1009000067206F6E20006572726F72206F70656E67
:10091000696E6720007772697465006572726F7224
:10092000206372656174696E672066696C653A2040
:10093000006E6577006572726F722064656C657415
:10094000696E672066696C653A2000726D00736994
:100950007A65006572726F722072656164696E6794
:10096000206469736B20696E666F0A006469736B3B
:10097000006572726F72207365656B696E67206FB8
:100980006E20006572726F72206F70656E696E679F
:10099000200072656164006572726F72206F70650D
:1009A0006E696E672000636174006C730064697225
:1009B0006563746F7279206E6F7420666F756E64F4
:1009C0003A200063640073657400626175640068B6
:1009D000656C70003F0046696C65207379737465BF
:1009E0006D20696E697469616C697A65640A004397
:1009F0006C6F73696E6720646F776E2066696C65D3
:100A00002073797374656D0A00696E69740066728B
:100A100065653A20202000666F726D61743A20008F
:100A200077722E70722E3A2000636F70793A202010
:100A300020004D420A0073697A653A202020006444
:100A40006174653A2020200073657269616C3A20F8
:100A50003078007265763A202020200070726F6432
:100A60003A202020006F656D3A20202020006D6123
:100A70006E75663A202030780021546F6F206D61CA
:100A80006E79206C6F67733A32210021546F6F20AA
:100A90006D616E79206C6F67733A31210045727217
:100AA0006F72206372656174696E67205345514CA3
:100AB0004F470A004372656174696E672053455160
:100AC0004C4F470A00320031000011241FBECFEF07
:100AD000D8E0DEBFCDBF11E0A0E0B1E0E8E2F9E58B
:100AE00002C005900D92AA32B107D9F717E0AAE229
:100AF000B1E001C01D92A33AB107E1F70E94621272
:100B00000C94922C0C9400001F920F920FB60F922F
:100B100011242F938F939F93EF93FF93E091FE0304
:100B2000F091FF038091C600EC5FFB4F80838091C2
:100B3000FE039091FF0301969093FF038093FE03C1
:100B40008BB190E289278BB98091FE039091FF03CE
:100B50008458934021F41092FF031092FE03FF91FA
:100B6000EF919F918F912F910F900FBE0F901F903B
:100B70001895F999FECF92BD81BD60BDFA9AF99A98
:100B80000895F999FECF92BD81BDF89A80B5089578
:100B90009C01220F331F81E006C085BB16BCA89BB9
:100BA000FECF2050314091E021303907B0F781E08D
:100BB00085BB822F819586BDA89BFECF0895CF93DC
:100BC000DF93EC0105C088EE93E00E94C8052197F1
:100BD0002097C9F7DF91CF9108950F931F93CF937B
:100BE000DF93C0E0D0E0082F10E00BC05D9A84E6F0
:100BF00090E00E94DF055D9884E690E00E94DF05AA
:100C00002196C017D10794F380ED97E00E94DF058D
:100C1000C0E0D0E0F6CF0F931F93509A589A4899AE
:100C20001BC0459A10E000E289E190E00E94DF05D8
:100C30008BB180278BB948990FC089E190E00E9461
:100C4000DF0585B1802785B9489906C01F5F183236
:100C500059F721E030E002C020E030E0C9011F91E7
:100C60000F910895EAE2F1E020E080819181892BE3
:100C700019F0828181112F5F339681E0E633F80706
:100C8000A1F7822F0895AC01EAE2F1E020E0808133
:100C90009181892B19F0828181112F5F339681E038
:100CA000E633F807A1F7243060F4822F90E0FC01CE
:100CB000EE0FFF1FE80FF91FE65DFE4F51834083E3
:100CC00062830895AC0120E030E070E00DC0FA01CD
:100CD000E20FF31F808190E0C0970A9718F040E080
:100CE00050E005C02F5F3F4F2617370784F3CA0136
:100CF0000895FC01DB0108C0891721F08F3311F042
:100D000080E00895319611969C919923F1F08081AD
:100D10008A3291F71AC080818A3259F431968081E3
:100D2000882311F481E008959D012F5F3F4FAF01AB
:100D300010C0891711F08F3319F43196119609C03C
:100D4000FA01D9012F5F3F4F04C020E030E040E0BE
:100D500050E09C919923F9F601C0319690819A3226
:100D6000E1F380E0992309F481E008958FEC97E0A6
:100D70000E94B8288AEB97E00E94B8288CE997E097
:100D80000E94B82889E097E00E94B82889E796E099
:100D90000E94B8288CE296E00E94B82883EF95E084
:100DA0000E94B8288FEA95E00E94B82882E895E072
:100DB0000E94B8288AE095E00E94B82880ED94E06F
:100DC0000E94B82886E394E00E94B82887E094E067
:100DD0000E94B82881EB93E00E94B8288DE793E049
:100DE0000E94B82882E493E00E94B82889E393E047
:100DF0000E94B8288DE093E00E94B82887EE92E028
:100E00000E94B82808951F93CF93DF93282FEB01FA
:100E1000EAE2F1E010E080819181892B19F0828172
:100E200081111F5F339681E0E633F807A1F72117A0
:100E300010F080E013C08CE690E00E94B828812F6B
:100E400090E00E94042888E690E00E94B828CE0135
:100E50000E94AB288AE00E94BC2781E0DF91CF91FD
:100E60001F910895CF93DF93EC018CE0EAE2F1E06B
:100E7000DF011D928A95E9F750E041E0A62FB0E02E
:100E800039C0242F30E0FE01E20FF31F8081803251
:100E900029F02F5F3F4F2A173B0759F5842F90E029
:100EA00001968A179B0709F4462FEAE2F1E020E059
:100EB00080819181892B19F0828181112F5F339676
:100EC00081E0E633F807A1F7243088F4822F90E020
:100ED000FC01EE0FFF1FE80FF91FE65DFE4FCE018C
:100EE000850F911D91838083842F851B82834F5FA3
:100EF000542F4F5F461728F2EAE2F1E020E08081AC
:100F00009181892B19F0828181112F5F3396A1E0A5
:100F1000E633FA07A1F7822FDF91CF910895982F3A
:100F200089E1EAE8F7E0DF011D928A95E9F794305C
:100F3000E8F4892F90E0FC01EE0FFF1FE80FF91F86
:100F4000E65DFE4F608171816115710579F0428126
:100F5000442361F04A3118F049E150E001C050E00B
:100F60008AE897E00E9438299C0102C020E030E026
:100F7000C9010895BF92CF92DF92EF92FF920F9333
:100F80001F93CF93DF93EC01B62E60E070E04B2D02
:100F900050E00E94082900E0CB2CDD240894C10811
:100FA000D10823C00E94C628182F883011F08F372F
:100FB00089F40023D1F00150FE01E00FF11D1082F1
:100FC00088E00E94BC2780E20E94BC2788E00E9443
:100FD000BC270BC00E94BC27FE01EE0DFF1D1A307E
:100FE00011F4108207C010830F5FE02EFF24EC1471
:100FF000FD04C4F2CE016B2D0E943207802FDF91D9
:10100000CF911F910F91FF90EF90DF90CF90BF9005
:101010000895FF920F931F93DF93CF9300D000D0DA
:101020000F92CDB7DEB7F999FECF12BC82E081BD39
:10103000F89AF0B48E010F5F1F4F8BE891E00E9489
:10104000B82887E791E00E94B828FF2019F48EE6BF
:1010500091E00BC081E0F81619F482E691E005C03A
:1010600082E0F81621F48AE591E00E94B82888E52C
:1010700091E00E94B8288CE491E00E94B82887E3B0
:1010800091E00E94B8288FE191E00E94B8288CE09E
:1010900091E00E94B82882EF90E00E94B82889EE83
:1010A00090E00E94B8288EE30E94BC27C80165E04A
:1010B0000E94BA07882309F2C80167EE70E00E9417
:1010C000E828892B49F485ED90E00E94B828F99929
:1010D000FECF12BC82E03BC0C80163ED70E00E940D
:1010E000E828892B59F48EEB90E00E94B828F999F2
:1010F000FECF12BC82E081BD81E010C0C8016CEB64
:1011000070E00E94E828892B59F48CEA90E00E9454
:10111000B828F999FECF12BC82E081BD80BD19C00C
:10112000C8016AEA70E00E94E828892BA9F48BE8DC
:1011300090E00E94B828F999FECF12BC83E081BDEF
:1011400010BCFA9AF99AF999FECF12BC84E081BDDD
:1011500010BCFA9AF99A0CC0C80169E870E00E94C4
:10116000E828892B09F069CF80E890E00E94B82830
:101170000F900F900F900F900F90CF91DF911F91D4
:101180000F91FF900895FF920F931F93DF93CF93DA
:1011900000D000D00F92CDB7DEB7F999FECF12BCC8
:1011A00081E081BDF89AF0B48E010F5F1F4F81ED91
:1011B00092E00E94B82887EC92E00E94B82884E070
:1011C000F81619F484EC92E01CC0FF2019F481ECAD
:1011D00092E017C081E0F81619F48EEB92E011C08E
:1011E00085E0F81619F48AEB92E00BC082E0F8165D
:1011F00019F486EB92E005C083E0F81621F481EB48
:1012000092E00E94B82889EA92E00E94B8288DE90D
:1012100092E00E94B82880E992E00E94B82883E812
:1012200092E00E94B82886E792E00E94B82888E6FB
:1012300092E00E94B8288AE592E00E94B8288BE4E8
:1012400092E00E94B82882E492E00E94B8288EE3DF
:101250000E94BC27C80165E00E94BA07882309F4F0
:10126000A6CFC80160E472E00E94E828892B59F4F7
:101270008AE292E00E94B828F999FECF12BC81E080
:1012800081BD10BC5CC0C80168E272E00E94E82821
:10129000892B59F482E192E00E94B828F999FECF97
:1012A00012BC81E081BD84E049C0C80160E172E008
:1012B0000E94E828892B51F48AEF91E00E94B82817
:1012C000F999FECF12BC81E081BD38C0C80168EF3A
:1012D00071E00E94E828892B71F481EE91E00E9470
:1012E000B828F999FECF12BC81E081BD85E080BDB0
:1012F000FA9AF99A27C0C8016FED71E00E94E828B8
:10130000892B59F488EC91E00E94B828F999FECF16
:1013100012BC81E081BD82E011C0C80166EC71E0C1
:101320000E94E828892B89F48EEA91E00E94B8286F
:10133000F999FECF12BC81E081BD83E080BDFA9AAD
:10134000F99A85E00E94ED050CC0C8016CEA71E0D5
:101350000E94E828892B09F02ACF82EA91E00E94B6
:10136000B8280F900F900F900F900F90CF91DF91B2
:101370001F910F91FF900895CF92DF92EF92FF920D
:101380000F931F93CF93DF93EC01162F60E070E073
:10139000412F50E00E94082900E0C12EDD2408946E
:1013A000C108D10823C00E94C628182F883011F028
:1013B0008F3789F40023D1F00150FE01E00FF11DB9
:1013C000108288E00E94BC2780E20E94BC2788E04F
:1013D0000E94BC270BC00E94BC27FE01EE0DFF1D22
:1013E0001A3111F4108207C010830F5FE02EFF2422
:1013F000EC14FD04C4F2802FDF91CF911F910F9167
:10140000FF90EF90DF90CF9008950F931F93DF939D
:10141000CF93CDB7DEB7AB970FB6F894DEBF0FBE54
:10142000CDBF0E940A17882319F483E00E94ED05BE
:101430000E94151D8CED95E16AE976E14CEE54E1D0
:1014400023EA37E100E00E948C129093030480931A
:101450000204892B79F48CED95E16AE976E14CEE92
:1014600054E123EA37E10FEF0E948C1290930304BA
:101470008093020480910204909103040E94701EE4
:101480009093FD038093FC0360E071E08E010F5F99
:101490001F4FA8010E9401278091FC039091FD033A
:1014A000B8010E948E269093890780938807AB9697
:1014B0000FB6F894DEBF0FBECDBFCF91DF911F9165
:1014C0000F910895CF92DF92FF920F931F93CF93C6
:1014D000DF936B01EA01F22E132F15C08F2D912F90
:1014E000BE010E941A29009749F0013061F4CE0133
:1014F0006F2D712F0E947906813029F4C6010E9458
:10150000DF1A81E007C0C6016F2D712F0E94851D73
:10151000882321F7DF91CF911F910F91FF90DF90EA
:10152000CF900895CF92DF92EF92FF920F93DF93C7
:10153000CF93CDB7DEB7AB970FB6F894DEBF0FBE33
:10154000CDBF7C016E010894C11CD11C960100E046
:101550000E94620A882319F420E030E005C0C70128
:10156000B6010E94CB269C01C901AB960FB6F89438
:10157000DEBF0FBECDBFCF91DF910F91FF90EF90F7
:10158000DF90CF900895EF92FF920F931F93DF9318
:10159000CF9300D000D0CDB7DEB78C016091880723
:1015A000709189078091FC039091FD03A8010E942E
:1015B000920A7C01009759F48DE798E00E94B828C0
:1015C000C8010E94AB288AE00E94BC2719C019827A
:1015D0001A821B821C82BE016F5F7F4F42E00E9415
:1015E000B524882379F48AE698E00E94B828C801D7
:1015F0000E94AB288AE00E94BC27C7010E9489197B
:1016000080E062C18CE30E94BC275D9A1092FF03C8
:101610001092FE03109201041092000480E090E00A
:10162000FC01EC5FFB4F1082019623E084389207A7
:10163000B9F78091C10080688093C1007894A6C0FA
:101640000F5F1F4F83E10938180708F49AC0809193
:10165000000490910104892B09F47BC0809100045F
:1016600090910104825C914009F473C08091000460
:1016700090910104825C914098F440910004509153
:101680000104C70164E074E00E9411252091000468
:101690003091010482179307D9F083E598E016C0D2
:1016A0004091000450910104425C5140C70166EC36
:1016B00075E00E9411252091000430910104225C04
:1016C00031408217930721F08CE398E00E94B828FC
:1016D0008091000490910104835C914018F460E0D3
:1016E00070E002C062EC71E0F894AB011EC0809122
:1016F000000490910104FC01EC5FFB4F2081FA0192
:10170000EC5FFB4F208301969093010480930004CB
:1017100080910004909101048458934020F010922D
:101720000104109200044F5F5F4F2091000430913C
:1017300001048091FE039091FF0328173907B9F641
:101740005093FF034093FE037093010460930004E1
:1017500078940E94C21508C05D9883B7816083BFEA
:10176000889583B78E7F83BF209100043091010458
:101770008091FE039091FF032817390769F300E079
:1017800010E081E090E00E94DF0502C000E010E080
:1017900020910004309101048091FE039091FF0399
:1017A0002817390709F44CCFE0910004F0910104A7
:1017B000EC5FFB4F80818A3139F4F8948091C1004D
:1017C0008F778093C10038C080910004909101040C
:1017D00001969093010480930004809100049091FD
:1017E0000104825C914069F4C70164E074E042EC5A
:1017F00051E00E941125825C914019F085E298E049
:1018000019C080910004909101048458934009F01C
:10181000BDCF1092010410920004C70166EC75E080
:1018200042EC51E00E941125825C914009F4AECF58
:101830008EE098E00E94B828809100049091010405
:10184000892BC9F18091000490910104825C914040
:1018500091F18091000490910104825C914098F490
:101860004091000450910104C70164E074E00E94BB
:101870001125209100043091010482179307D9F0BB
:1018800087EF97E016C04091000450910104425C3C
:101890005140C70166EC75E00E94112520910004BB
:1018A00030910104225C31408217930721F080EED1
:1018B00097E00E94B828C7010E9489195D988EEDB3
:1018C00097E00E94B82881E00F900F900F900F9042
:1018D000CF91DF911F910F91FF90EF9008952F927C
:1018E0003F924F925F926F927F928F929F92AF92B0
:1018F000BF92CF92DF92EF92FF920F931F93DF93ED
:10190000CF93CDB7DEB7C956D0400FB6F894DEBF3F
:101910000FBECDBF0EE0602E712C6C0E7D1E12E648
:10192000212E312C2C0E3D1EB6E04B2E512C4C0E90
:101930005D1E8EE30E94BC27C30168E10E94BA07C6
:101940008823B9F380E00E948F078C0169E07AE078
:101950000E94E828892BA9F48FEE99E00E94B8280C
:101960008091FC039091FD030E94FE178091020478
:10197000909103040E9484120E94050A86ED99E06A
:101980002AC4C80164ED79E00E94E828892B39F067
:10199000C8016FEC79E00E94E828892B19F40E94B5
:1019A000B606C7CFC8016AEC79E00E94E828892B07
:1019B00019F40E94C308BDCFC80166EC79E00E940B
:1019C000E828892B19F40E940908B3CFC80163ECF9
:1019D00079E042E050E00E94F128892BE1F582E0B5
:1019E000B3010E940307882309F0A3CF81E00E947E
:1019F0008F077C01009709F49CCF60918807709154
:101A000089078091FC039091FD03A7019E01215C51
:101A10003F4F00E00E94620A8823B9F08091FC03E6
:101A20009091FD03BE01615C7F4F0E948E268C0168
:101A3000009759F080918807909189070E94D91AE0
:101A4000109389070093880774CF8DEA99E00E946C
:101A5000B828C701C8C3C8016AEA79E00E94E8282B
:101A6000892B09F048C081E00E948F076C01AFE329
:101A7000EA2EF12CEC0EFD1EF4E2BF2E32C0C11492
:101A8000D10431F0C601B7010E947906882349F1DB
:101A9000D7010D900020E9F78D01015010400E197B
:101AA0001F09C7010E94AB28A0968FADA09784FDA7
:101AB00002C080E201C08FE21B2D101B0E94BC27D8
:101AC00004C080E20E94BC2711501123D1F7F1011C
:101AD00060817181828193810E9442288AE00E9404
:101AE000BC278091880790918907B7010E94851DC6
:101AF000882329F61ECFC80166EA79E043E050E06A
:101B00000E94F128892B09F04DC082E0B3010E94A8
:101B10000307882309F00DCF81E00E948F078C0115
:101B2000009709F406CF609188077091890780912A
:101B3000FC039091FD03A8010E94920A5C010097AA
:101B400021F0CC24DD24760122C087E999E048C346
:101B5000C701B6010E94F1278AE30E94BC278201D7
:101B600080E20E94BC27D8018D918D010E94CB2775
:101B7000802F84198915A0F38AE00E94BC2788E091
:101B800090E0A0E0B0E0C80ED91EEA1EFB1EC50121
:101B9000B20148E050E00E948F19982E8823C1F6C8
:101BA000C5017DC0C80162E979E044E050E00E94CF
:101BB000F128892B09F0E2C081E00E948F078C0197
:101BC000009709F4B6CE60918807709189078091DB
:101BD000FC039091FD03A8010E94920A4C0100971A
:101BE00019F483E899E0FCC282E00E948F07AC01FF
:101BF000009709F457C0FC0101900020E9F73197E4
:101C0000E81B20E030E06E2F70E00BC0FA01E20F1D
:101C1000F31F808190E0C0970A9708F043C02F5FC0
:101C20003F4F2617370794F38A0120E030E040E069
:101C300050E017C0CA01B9012AE030E040E050E0AE
:101C40000E94F32B9B01AC018F2D90E0C097AA2737
:101C500097FDA095BA2F280F391F4A1F5B1F0F5FF2
:101C60001F4FD801FC908F2D80538A3018F32A83A0
:101C70003B834C835D83C401BE016E5F7F4F40E0B8
:101C80000E94B524882371F481E799E00E94B82866
:101C9000C3010E94AB288AE00E94BC27C4010E94B5
:101CA000891947CE83E00E948F07AC010097E1F1CC
:101CB000FC0101900020E9F73197E81B20E030E0BB
:101CC0006E2F70E00AC0FA01E20FF31F808190E0EE
:101CD000C0970A9748F52F5F3F4F261737079CF3A9
:101CE0006A01EE24FF24870118C0C801B7012AE069
:101CF00030E040E050E00E94F32B7B018C018B2D03
:101D000090E0C097AA2797FDA095BA2FE80EF91E7C
:101D10000A1F1B1F0894C11CD11CF601B0808B2D1B
:101D200080538A3010F318C0EE24EA94FE2C870109
:101D300013C09981892F80528F3510F4892F05C0E7
:101D40009A3011F48AE001C08EE20E94BC27089408
:101D5000E108F10801091109C401BE016F5F7F4F5D
:101D600041E050E00E948F19181619060CF093CF2D
:101D7000E114F10401051105E1F68DCFC8016CE60F
:101D800079E00E94E828892B09F0A8C00091FC03A3
:101D90001091FD030115110509F49DC0CE01869631
:101DA0000E94CF13882309F496C08EE69AE00E9421
:101DB000B8288EA10E94CB278AE00E94BC2785E626
:101DC0009AE00E94B828CE0187960E94AB288AE04C
:101DD0000E94BC278CE59AE00E94B828CE018A9622
:101DE0000E94AB288AE00E94BC2783E59AE00E940B
:101DF000B82888A90E94CB278AE00E94BC2788E4E3
:101E00009AE00E94B82869A97AA98BA99CA90E9486
:101E1000F1278AE00E94BC278FE39AE00E94B8284D
:101E20008EA990E00E9404288FE20E94BC278DA911
:101E300090E00E9404288AE00E94BC2786E39AE092
:101E40000E94B8286FA978AD89AD9AADE4E1969566
:101E5000879577956795EA95D1F70E94422882E3A6
:101E60009AE00E94B82889E29AE00E94B8288BADD7
:101E700090E00E9404288AE00E94BC2780E29AE059
:101E80000E94B8288DAD90E00E9404288FE20E9445
:101E9000BC278CAD90E00E9404288AE00E94BC27F9
:101EA00087E19AE00E94B8288EAD90E00E94042855
:101EB0008AE00E94BC278EE09AE00E94B828C80100
:101EC0000E94611C0E9442288FE20E94BC27C80128
:101ED0000E94421C2FC083E599E07DC1C8016EE4D9
:101EE00079E044E050E00E94F128892B59F582E026
:101EF000B3010E940307882309F01BCD81E00E94F3
:101F00008F07AC01009709F414CD60918807709198
:101F100089078091FC039091FD039E01215C3F4F56
:101F200000E00E94620A882341F0D1016D917D9109
:101F30008D919C910E94422858C182E091E00E94BC
:101F4000AB28F7CCC8016BE479E042E050E00E9496
:101F5000F128892BB9F583E0B3010E940307882398
:101F600009F0E7CC81E00E948F077C010097A9F47B
:101F7000E0CC8091FC039091FD03B6010E94C01B50
:101F8000882381F485E399E00E94B828C3010E9468
:101F9000AB288AE00E94BC2705C05FE3C52ED12C88
:101FA000CC0EDD1E60918807709189078091FC033B
:101FB0009091FD03A701960101E00E94620A882327
:101FC000C1F6B7CCC80161E379E043E050E00E947C
:101FD000F128892B01F582E0B3010E9403078823D1
:101FE00009F0A7CC81E00E948F07BC01009709F49B
:101FF000A0CC8091880790918907AE01415C5F4F2A
:102000000E943023882309F094CC8BE199E00E9450
:10201000B828C301E8C0C80165E179E045E050E0B7
:102020000E94F128892B09F08FC081E00E948F0760
:102030005C01009709F47DCC82E00E948F078C013F
:102040000097C9F0FC0101900020E9F73197E81BE7
:1020500020E030E04E2F50E00BC0F801E20FF31FFC
:10206000808190E0C0970A9708F063CC2F5F3F4FC4
:102070002417350794F36091880770918907809140
:10208000FC039091FD03A5010E94920A7C01009738
:1020900029F020E030E040E050E01DC086E099E00B
:1020A0000E94B828C5019FC0CA01B9012AE030E0EA
:1020B00040E050E00E94F32B9B01AC018D2D90E09D
:1020C000C097AA2797FDA095BA2F280F391F4A1F3E
:1020D0005B1F0F5F1F4FF801D0808D2D80538A301A
:1020E00018F32A833B834C835D83C701BE016E5F77
:1020F0007F4F40E00E94B524882359F484EF98E094
:102100000E94B828C5010E94AB288AE00E94BC2723
:1021100019C08CE30E94BC27C30168E10E94BA0782
:10212000182F882379F0C701B301412F50E00E9496
:102130001125212F30E08217930759F38DED98E098
:102140000E94B828C701ABCDC80166ED78E046E033
:1021500050E00E94F128892B81F482E0B3010E94B3
:102160000307882309F0E5CB81E00E948F070097E1
:1021700009F4DFCB0E94C30ADCCBC80163ED78E031
:1021800042E050E00E94F128892BB9F481E00E94DE
:102190008F078C01009709F4CCCB80918807909130
:1021A0008907B801AE01415C5F4F0E94712288230C
:1021B00009F0BFCB88EB98E013C0C80163EB78E06F
:1021C0000E94E828892B51F40E94C215882309F047
:1021D000B0CB8FE998E00E94B828ABCB8DE898E0AF
:1021E0000E94B828C8010E94AB288AE00E94BC2740
:1021F000A0CB9F92AF92BF92CF92DF92EF92FF92CD
:102200000F931F93DF93CF93CDB7DEB7AB970FB686
:10221000F894DEBF0FBECDBFF999FECF12BC83E0AC
:1022200081BDF89A30B5F999FECF12BC84E081BD2A
:10223000F89A20B53F3FA9F42F3F99F4F999FECFC2
:1022400012BC83E081BD10BCFA9AF99AF999FECFCD
:1022500012BC84E081BD10BCFA9AF99ACC24DD242A
:102260000EC0922F80E0C32EDD24C82AD92A8EEF1B
:10227000C8168FEFD80619F48BE89AE04CC000D04E
:1022800000D000D0EDB7FEB731960AE817E0ADB741
:10229000BEB712961C930E93119786E0E82E81E04C
:1022A000F82EF382E282D582C4820E9452298DB731
:1022B0009EB706960FB6F8949EBF0FBE8DBF902EA8
:1022C000012F5E010894A11CB11C1E2DEF2C26C00D
:1022D000690100D000D000D0EDB7FEB73196ADB7A0
:1022E000BEB711969C92119712960C931283E382BB
:1022F000358324830E9452298DB79EB706960FB668
:10230000F8949EBF0FBE8DBF9EEFC9169FEFD906F2
:1023100028F089E79AE00E94B8282CC080918807AD
:10232000909189076AE877E0A5010E943023960121
:102330002F5F3F4F882361F2932FF999FECF12BC94
:1023400083E081BD20BDFA9AF99AF999FECF12BCBB
:1023500084E081BDF89A80B5891741F0F999FECFE4
:1023600012BC84E081BD90BDFA9AF99A8AE897E0A0
:102370000E94C30AAB960FB6F894DEBF0FBECDBF66
:10238000CF91DF911F910F91FF90EF90DF90CF9051
:10239000BF90AF909F900895EF92FF920F931F937D
:1023A000DF93CF93CDB7DEB7E8970FB6F894DEBFD3
:1023B0000FBECDBF8E010F5F1F4FC80162E171E0FC
:1023C0000E94232960918807709189078091FC03FE
:1023D0009091FD03A8010E94920A7C010097A9F444
:1023E00084EB9AE00E94B828809188079091890731
:1023F000B801AE01425F5F4F0E943023882329F469
:102400008DE99AE00E94B82807C0C7010E94891987
:10241000CE0101960E94C30AE8960FB6F894DEBF7B
:102420000FBECDBFCF91DF911F910F91FF90EF9025
:1024300008951F9382E085BD80916400896C80932C
:10244000640083B7817F83BF83B7816083BF559A60
:10245000259A0E940B06892BB1F0F999FECF12BC88
:1024600081E081BD80BDFA9AF99A5D9A2D9A10E2B9
:1024700084EF91E00E94DF058BB181278BB985B194
:10248000812785B9F5CFF999FECF12BC81E081BDD6
:10249000F89A80B5863040F0F999FECF12BC81E001
:1024A00081BD80BDFA9AF99A0E94922787EC9AE042
:1024B0000E94B8280E94050A85EC9AE00E94B8287C
:1024C0001F9108950E941912F999FECF12BC82E063
:1024D00081BDF89A80B5863048F0F999FECF12BCDC
:1024E00082E081BD10BCFA9AF99A02C0882319F4DF
:1024F0000E94F91004C0813011F40E94CC110E9496
:102500006F0C80E090E00895FC01009711F480E0EA
:102510000895108681E008958F929F92AF92BF92A6
:10252000CF92DF92EF92FF920F93DF93CF93CDB7CD
:10253000DEB760970FB6F894DEBF0FBECDBF7C014B
:102540006B015A014901009709F493C061157105A7
:1025500009F48FC004300CF08CC007FD1DC0602F43
:10256000772767FD7095E4E0660F771FEA95E1F73E
:1025700062547E4F882777FD8095982FAE014F5F7C
:102580005F4F20E130E0F7010995882309F471C01D
:102590008D81882309F46DC080913E01882309F064
:1025A00068C07CC08D8180933E012A8530E040E088
:1025B00050E0542F432F322F22278B8590E0A0E04C
:1025C000B0E0DC0199278827282B392B4A2B5B2B7D
:1025D000898590E0A0E0B0E0282B392B4A2B5B2BBB
:1025E0008C8590E0A0E0B0E0B82FAA279927882733
:1025F000282B392B4A2B5B2B20933F013093400132
:1026000040934101509342012E8530E040E050E07C
:10261000542F432F322F22278F8590E0A0E0B0E087
:10262000DC0199278827282B392B4A2B5B2B8D859A
:1026300090E0A0E0B0E0282B392B4A2B5B2B888957
:1026400090E0A0E0B0E0B82FAA2799278827282B90
:10265000392B4A2B5B2B2093430130934401409349
:1026600045015093460103C08FEF80933E019F01C7
:1026700002C020E030E0C90160960FB6F894DEBFDA
:102680000FBECDBFCF91DF910F91FF90EF90DF9004
:10269000CF90BF90AF909F908F900895E6E3F1E0C8
:1026A00081E1DF011D928A95E9F7F0923701E0920E
:1026B0003601D0923901C0923801B0923B01A0920C
:1026C0003A0190923D0180923C0107FF6BCFCCCF45
:1026D00081E0089580E00895282F8FEF8EBD0DB41E
:1026E00007FEFDCF8DB58F778DBD8EB5822F8064AF
:1026F0008EBD0DB407FEFDCF8DB58F778DBD872FB5
:102700009927AA27BB278EBD0DB407FEFDCF8DB537
:102710008F778DBDCB01AA27BB278EBD0DB407FED9
:10272000FDCF8DB58F778DBDBB27A72F962F852F1A
:102730008EBD0DB407FEFDCF8DB58F778DBD4EBD1F
:102740000DB407FEFDCF8DB58F778DBD222319F017
:10275000283069F406C085E98EBD0DB407FEFDCFB3
:102760000BC087E88EBD0DB407FEFDCF05C08FEF0F
:102770008EBD0DB407FEFDCF8DB58F778DBD90E07A
:102780002FEF2EBD0DB407FEFDCF8DB58F778DBD1C
:102790008EB58F3F19F49F5F9A3099F70895CF92C5
:1027A000DF92EF92FF920F931F93CF93DF93EC0191
:1027B000009781F089E1FE0111928A95E9F72A9844
:1027C0008AE040E050E060E070E00E946C138823F3
:1027D00019F02A9A80E0F7C09FEF9EBD0DB407FE66
:1027E000FDCF8DB58F778DBD8EB58E3FB1F71C2F88
:1027F000CE01FC0160E670E00FEF9E2F911B0EBD35
:102800000DB407FEFDCF8DB58F778DBD2EB59830F9
:1028100028F4933088F4992359F00CC09D3018F4B3
:10282000993070F40BC09D3019F19E3069F524C0C9
:1028300028832AC0208328C0218326C02A8724C059
:1028400030E040E050E0062E04C0220F331F441F4A
:10285000551F0A94D2F78B859C85AD85BE85822B4A
:10286000932BA42BB52B8B879C87AD87BE870CC081
:102870002295207F2F8708C0922F92959F708F8579
:10288000892B8F872F70288B3196685070408FEF7F
:10289000603D780709F0B1CF89E040E050E060E0AA
:1028A00070E00E946C13882309F093CF9FEF9EBDC8
:1028B0000DB407FEFDCF8DB58F778DBD8EB58E3FE4
:1028C000B1F7F0E070E020E030E040E050E060E0A0
:1028D0001FEFE1E01EBD0DB407FEFDCF8DB58F7774
:1028E0008DBD8EB56E3079F490E086FDED8B85FD63
:1028F000EE8B84FDEF8B8C709070959587959595F8
:102900008795888F5AC06730F9F0683030F46530A9
:1029100061F0663009F051C00BC06930A1F1693037
:1029200010F16A3009F049C032C0F82FFF7045C07D
:1029300090E0A0E0B0E083709070A070B0702227AB
:10294000382F492F5A2F39C090E0A0E0B0E0282B53
:10295000392B4A2B5B2BA2E0220F331F441F551F3C
:10296000AA95D1F72AC0829586958695837090E0C6
:10297000A0E0B0E0282B392B4A2B5B2B2F5F3F4F79
:102980004F4F5F4F1AC0782F7370770F16C0881F94
:102990008827881F782B8F2F90E00296870F911D34
:1029A00069017A0104C0CC0CDD1CEE1CFF1C8A9569
:1029B000D2F7C98ADA8AEB8AFC8A6F5F623109F042
:1029C00089CF2A9A81E0DF91CF911F910F91FF90DB
:1029D000EF90DF90CF9008952F923F924F925F92A9
:1029E0006F927F928F929F92AF92BF92CF92DF921F
:1029F000EF92FF920F931F93CF93DF934B015C01F4
:102A00002A01390133243A9422242394A1C0E401F9
:102A1000D170CE01A0E0B0E085017401E81AF90A96
:102A20000A0B1B0BC12CB2E0DB2ECC1ADD0A6C1496
:102A30007D0408F463018091470390914803A091BD
:102A40004903B0914A03E816F9060A071B07F9F093
:102A50000E94C215882309F481C0209729F480E0E0
:102A6000C81682E0D80658F4C801B70147E451E01F
:102A700020E032E00E94DC15882309F46FC0E09268
:102A80004703F09248030093490310934A0387E4F5
:102A9000481681E0580671F09E01295B3E4FC9013E
:102AA000B201A6010E94FF2810924B036C147D0412
:102AB00009F452C02A9888E1B801A7010E946C135A
:102AC000882311F02A9A4AC08EEF8EBD0DB407FEFE
:102AD000FDCF8DB58F778DBDE7E4F1E081918EBD9F
:102AE0000DB407FEFDCF8DB58F778DBD83E0E73444
:102AF000F807A1F73EBC0DB407FEFDCF8DB58F776B
:102B00008DBD3EBC0DB407FEFDCF8DB58F778DBD5D
:102B10003EBC0DB407FEFDCF8DB58F778DBD8EB554
:102B20008F3FB1F78EBD0DB407FEFDCF8DB58F770A
:102B30008DBD8EB52A9A4C0C5D1CC601A0E0B0E09C
:102B4000880E991EAA1EBB1E6C187D0820924B038E
:102B50006114710409F05BCF81E001C080E0DF9176
:102B6000CF911F910F91FF90EF90DF90CF90BF908A
:102B7000AF909F908F907F906F905F904F903F901D
:102B80002F90089580914B03882311F081E00895E0
:102B900060914703709148038091490390914A03E3
:102BA00047E451E020E032E00E94EC14882319F061
:102BB00081E080934B0308953F924F925F926F9212
:102BC0007F928F929F92AF92BF92CF92DF92EF92BD
:102BD000FF920F931F93CF93DF933B014C016A0148
:102BE000290133243A948FC01FEFA12E11E0B12E9A
:102BF000A620B720C501A0E0B0E084017301E81A67
:102C0000F90A0A0B1B0BC0E0D2E0CA19DB094C160B
:102C10005D0608F4E2018091470390914803A0917A
:102C20004903B0914A03E816F9060A071B0709F49D
:102C300057C00E94C215882309F46AC02A9881E10E
:102C4000B801A7010E946C13882319F02A9A80E02A
:102C50005FC03EBC0DB407FEFDCF8DB58F778DBD37
:102C60008EB58E3FB1F7E7E4F1E03EBC0DB407FE50
:102C7000FDCF8DB58F778DBD8EB5808383E0E63433
:102C8000F80711F03196F1CFE0924703F092480334
:102C90000093490310934A039501295B3E4FC601F7
:102CA000B901AE010E94FF283EBC0DB407FEFDCF66
:102CB0008DB58F778DBD8EB53EBC0DB407FEFDCFB3
:102CC0008DB58F778DBD8EB52A9A3EBC0DB407FEAB
:102CD000FDCFCC0EDD1E8DB58F778DBD8EB50AC0B4
:102CE0009501295B3E4FC601B901AE010E94FF2844
:102CF000CC0EDD1E4C1A5D0ACE01A0E0B0E0680EDD
:102D0000791E8A1E9B1E4114510409F06DCF81E08B
:102D1000DF91CF911F910F91FF90EF90DF90CF90B7
:102D2000BF90AF909F908F907F906F905F904F90EB
:102D30003F9008952F923F924F925F926F927F92B1
:102D40008F929F92AF92BF92CF92DF92EF92FF92BB
:102D50000F931F93DF93CF9300D000D0CDB7DEB792
:102D60004B015C013A013C832B832701DA82C98243
:102D700041155105A9F12115310591F102171307EC
:102D800078F1E114F10461F11901309421943108D2
:102D90003394021B130B6901EE24FF24C501B40117
:102DA000A3012B813C810E94DC158823C9F0C3015B
:102DB000B501A40129813A81F2010995882391F096
:102DC000020D131D8B819C81800F911F2B813C81F3
:102DD0008217930738F08C0C9D1CAE1CBF1CDECFF5
:102DE00080E001C081E00F900F900F900F90CF9185
:102DF000DF911F910F91FF90EF90DF90CF90BF90E8
:102E0000AF909F908F907F906F905F904F903F908A
:102E10002F9008950F931F93CF93DF93239A259AB2
:102E2000229A24982A9A83E58CBD8DB58E7F8DBD1C
:102E300010924C0390E02FEF2EBD0DB407FEFDCF96
:102E40008DB58F778DBD8EB59F5F9A30A9F72A9883
:102E5000C0E0D0E080E040E050E060E070E00E9440
:102E60006C13182F813039F081E0CF3FD80709F477
:102E700040C02196EFCF87E340E050E060E070E093
:102E80000E946C1389E240E050E060E070E00E9434
:102E90006C1382FD02C010934C0380914C03082FE9
:102EA00010E003701070C0E0D0E00115110549F08A
:102EB00087E340E050E060E070E00E946C1389E23C
:102EC00001C081E040E050E060E070E00E946C13DF
:102ED00080FF06C08FE7CF3FD80759F02196E5CF96
:102EE00080E140E052E060E070E00E946C138823D3
:102EF00019F02A9A80E022C02A9A8CB58C7F8CBD6A
:102F00008DB581608DBD8FEF9FEFAFEFBFEF8093E9
:102F1000470390934803A0934903B0934A0381E089
:102F200080934B0360E070E080E090E047E451E084
:102F300020E032E00E94DC15811181E0DF91CF9129
:102F40001F910F9108954F925F926F927F928F928F
:102F50009F92AF92BF92CF92DF92EF92FF920F9328
:102F60001F93CF93DF935B016C014A01E9013801A4
:102F700027014115510571F10115110559F1FF2482
:102F80002115310511F5FF24F3941FC0C401B601CA
:102F9000A5019201F30109958C010097E9F0FF204A
:102FA00019F4C817D907B0F0C601B501A4019801FA
:102FB0000E94EC14882371F0C801A0E0B0E0A80ED4
:102FC000B91ECA1EDB1EC01BD10BFF20F9F62097CD
:102FD000E9F602C080E001C081E0DF91CF911F914E
:102FE0000F91FF90EF90DF90CF90BF90AF909F90A8
:102FF0008F907F906F905F904F900895FC010097A5
:1030000011F0118210820895DF93CF9300D0CDB7D5
:10301000DEB7DC01009791F16230710578F180E054
:1030200090E0660F771F881F991FED91FC91119713
:1030300016962D913D914D915C911997620F731FDA
:10304000841F951F0190F081E02DAE014F5F5F4F0F
:1030500022E030E00995882389F029813A81211501
:10306000310571F08FEF273F380741F0C9014096D5
:10307000079720F08FEF283F380710F020E030E06E
:10308000C9010F900F90CF91DF9108954F925F92F9
:103090006F927F928F929F92AF92BF92CF92DF9268
:1030A000EF92FF920F931F93DF93CF9300D0CDB792
:1030B000DEB75C01009709F449C06230710508F47D
:1030C00045C0DC0116966D907D908D909C9019976F
:1030D0002E010894411C511C660F771F7B0100E0F4
:1030E00010E0E60CF71C081D191DD501ED91FC91AF
:1030F0000190F081E02DC801B701A20122E030E08B
:103100000995882319F1C980DA80C114D10401F12D
:10311000C60140960897D0F0B8EFCB16BFEFDB069C
:1031200010F0CC24DD241A821982D501ED91FC9196
:103130000480F581E02DC801B701A20122E030E052
:103140000995B601C114D10439F602C080E001C06E
:1031500081E00F900F90CF91DF911F910F91FF9021
:10316000EF90DF90CF90BF90AF909F908F907F9027
:103170006F905F904F9008952F923F924F925F9281
:103180006F927F928F929F92AF92BF92CF92DF9277
:10319000EF92FF920F931F93DF93CF93CDB7DEB7DC
:1031A0002A970FB6F894DEBF0FBECDBF3C012B01AE
:1031B000009709F48FC0DC01ED91FC9111972081FB
:1031C00031813A8729872480358016968D919D918B
:1031D0000D90BC91A02D8D839E83AF83B887F301A2
:1031E00082859385A485B585B695A795979587958E
:1031F0009C838B834A01CC24DD2462E0A62EB12C73
:1032000041C0C501880F991F7C0100E010E02D81AD
:103210003E814F815885E20EF31E041F151FC80121
:10322000B701AE014F5F5F4F22E030E0A985BA855C
:10323000FD010995882309F44DC089819A81892B64
:10324000F1F4C114D10429F4EFEFFFEFFA83E9831D
:1032500002C0DA82C982C801B701AE014F5F5F4F79
:1032600022E030E0F1010995882391F0089481086B
:1032700091088114910411F465010CC06501089452
:10328000A11CB11C2B813C81A216B30608F4B9CF56
:103290008928E1F432E043165104F0F0DA82C98261
:1032A000440C551CB20180E090E02D813E814F819D
:1032B0005885620F731F841F951FAE014F5F5F4FCC
:1032C00022E030E0F1010995882331F4C301B60111
:1032D0000E944618CC24DD24C6012A960FB6F89425
:1032E000DEBF0FBECDBFCF91DF911F910F91FF9039
:1032F000EF90DF90CF90BF90AF909F908F907F9096
:103300006F905F904F903F902F90089580E190E0F4
:103310000895FC01009711F01182108208952F92F8
:103320003F924F925F926F927F928F929F92AF9255
:10333000BF92CF92DF92EF92FF920F931F93DF9392
:10334000CF93CDB7DEB72A970FB6F894DEBF0FBE86
:10335000CDBF2C017A8369835C834B83009709F48A
:1033600009C1672B09F406C1452B09F403C1DC012F
:103370009D96AD90BD90CD90DC90D09795962D9177
:103380003D914D915C919897EB81FC81CF01A0E03C
:10339000B0E08A0D9B1DAC1DBD1D281739074A07DB
:1033A0005B0740F4B9016A197B097C836B83672B47
:1033B00009F4E3C0D201ED91FC9111972088318886
:1033C000D196ED91FC91D297FA87E987EF2BF1F531
:1033D00093962D913C9194973A872987232B39F422
:1033E000A114B104C104D10409F4C7C0C3C0A1141D
:1033F000B104C104D10451F1860175013101882461
:10340000992466277727CB016619770988099909D6
:103410006D837E838F83988714C0D2018D919C9198
:1034200069857A850E9404189A878987892B09F40F
:10343000A1C06D817E818F819885E60EF71E081FE1
:10344000191FE614F7040805190538F70894210830
:103450003108A220B3200894211C311CCB80DC80D1
:10346000D201ED90FC90E114F10409F1E985FA85AF
:10347000E230F105E0F03297BF0180E090E0329653
:10348000FA87E987D70150962D913C91519740E0FA
:1034900050E00E94F32B9B01AC01F70182899389D4
:1034A000A489B589280F391F4A1F5B1F04C020E07B
:1034B00030E040E050E081010A191B09C016D10636
:1034C00008F48601D701ED91FC91C501A0E0B0E0C0
:1034D000280F391F4A1F5B1F0190F081E02DCA01A0
:1034E000B90149815A8198010995882341F1C01A8F
:1034F000D10AC801A0E0B0E0F20125A536A547A594
:1035000050A9280F391F4A1F5B1FD2019D962D938A
:103510003D934D935C93D097C8018A0D9B1D8215F6
:103520009305A0F08D919C9169857A850E9404187D
:103530009A878987892B41F4F20112AA11AA4B813B
:103540005C814C195D091BC0AA24BB24E985FA855E
:10355000D201D296FC93EE93D197C114D10439F0E5
:1035600029813A81200F311F3A83298379CF4B81FA
:103570005C8105C04FEF5FEF02C040E050E0CA0140
:103580002A960FB6F894DEBF0FBECDBFCF91DF9164
:103590001F910F91FF90EF90DF90CF90BF90AF9071
:1035A0009F908F907F906F905F904F903F902F9063
:1035B0000895FC01009711F0118210820895FC011A
:1035C000009711F480E0089583A194A196A785A7A0
:1035D00010AA17A681E00895CF92DF92EF92FF9292
:1035E0000F931F93CF93DF938C016A017B01A90195
:1035F000D901CD91DC91119712968D919C911397E1
:10360000809613969C938E931297F8018081853E45
:1036100009F4AAC0882309F4A7C08FA198A5A9A579
:10362000BAA50097A105B10521F4CFA2D8A6E9A6B5
:10363000FAA6209709F49AC00115110509F496C05D
:10364000D8019C91992309F491C01B968C918F30DD
:1036500029F5892F90E08F7390702DE030E0829FE4
:10366000A001839F500D929F500D11244D5050404A
:10367000ADE1B1E0C40FD51F0DC08D91F801E80F89
:10368000F11D808189934F5F5F4FE1E0AA32BE0751
:1036900009F46AC04F31510580F366C088818823E0
:1036A00009F04EC0B801DE01780120E0F7019081F9
:1036B0009032A1F09C93F801848583FF08C0F70144
:1036C0008081813420F08B3510F4905E9C932F5FC5
:1036D0000894E11CF11C1196283041F7888185304F
:1036E00011F485EE8883D80118968C91803221F1EF
:1036F000FE01E20FF11D8EE28083322F3F5F2C5FCF
:10370000FB0190859032B9F0FE01E30FF11D90832B
:10371000D8011C968C9184FF09C0DB0118968C910E
:10372000813420F08B3510F4905E90833F5F6F5FA3
:103730007F4F321729F7232FFE01E20FF11D108270
:10374000F801838588A3828D938D9AA389A3848DA4
:10375000958DA68DB78D8BA39CA3ADA3BEA381E051
:10376000DA0114968C9302C081E001C080E0DF9101
:10377000CF911F910F91FF90EF90DF90CF90089520
:103780007F928F929F92AF92BF92CF92DF92EF92F1
:10379000FF920F931F93DF93CF93CDB7DEB72C9794
:1037A0000FB6F894DEBF0FBECDBF6C015B01009772
:1037B00009F453C06115710509F44FC0DB019796F8
:1037C000ED90FD900D911C919A97E114F104010583
:1037D000110509F442C04E010894811C911CE5EECC
:1037E0007E2ED601ED91FC910190F081E02DC80173
:1037F000B701A4012CE030E00995882371F17982AA
:10380000D601ED91FC910480F581E02DC801B7014E
:10381000A4012CE030E009958823F9F08C858F30E5
:1038200049F480E290E0A0E0B0E0E80EF91E0A1F43
:103830001B1FD7CFD50191966D917C919297611501
:10384000710539F0C6010E94461820E030E0882357
:1038500011F021E030E0822F01C080E02C960FB6FD
:10386000F894DEBF0FBECDBFCF91DF911F910F91B6
:10387000FF90EF90DF90CF90BF90AF909F908F9090
:103880007F900895FC01009729F420E030E040E0AB
:1038900050E014C0628573858485958596958795DB
:1038A00077956795625070408040904020893189BB
:1038B00040E050E00E94F32B9B01AC01B901CA012A
:1038C00008952F923F924F925F926F927F928F92C4
:1038D0009F92AF92BF92CF92DF92EF92FF920F939F
:1038E0001F93DF93CF93CDB7DEB7A6970FB6F894AB
:1038F000DEBF0FBECDBF9EA38DA3892B09F45DC093
:103900001A82198280E290E09C838B83ADA1BEA1D4
:1039100016964D905D906D907C9019971A968D90AB
:103920009D90AD90BC901D9734C0BEEF8B16BFEF3D
:103930009B06B0E0AB06B0E0BB0628F01EEF212EE0
:103940001FEF312E01C01401ADA1BEA1ED91FC917C
:103950000280F381E02DC301B201AE014B5F5F4FE6
:1039600020E230E08101BCEFEB2EBCE1FB2E6E01CA
:103970000894C11CD11C09958823F9F0C101A0E06D
:10398000B0E0480E591E6A1E7B1E881A990AAA0AC0
:10399000BB0A81149104A104B10439F6EDA1FEA182
:1039A0006089718980E090E029813A8140E050E0AF
:1039B0000E94F32B9B01AC0104C020E030E040E00A
:1039C00050E0B901CA01A6960FB6F894DEBF0FBE4B
:1039D000CDBFCF91DF911F910F91FF90EF90DF90BE
:1039E000CF90BF90AF909F908F907F906F905F909F
:1039F0004F903F902F900895DC01F901428153814F
:103A000020E030E00DC08D919C911197892B29F415
:103A1000808191810196918380832E5F3F4F129622
:103A20002417350780F381E008958AE1EDE4F3E09F
:103A3000DF011D928A95E9F783E3E7E6F3E0DF0112
:103A40001D928A95E9F782E6EAE9F3E0DF011D922B
:103A50008A95E9F70895CF92DF92EF92FF920F9344
:103A60001F93DF93CF93CDB7DEB760970FB6F8946F
:103A7000DEBF0FBECDBF8C016230710510F480E057
:103A800035C0009729F440E050E060E070E016C0D7
:103A90006250704080E090E0F8012089318940E078
:103AA00050E00E94F32BAB01BC01F801828993899D
:103AB000A489B589480F591F6A1F7B1FDE01119623
:103AC00080E1FD0111928A95E9F7F80180819181E9
:103AD00020893189FC01C680D780CB01BA01AD01B4
:103AE00006E819E1EE24FF24F601099560960FB669
:103AF000F894DEBF0FBECDBFCF91DF911F910F9124
:103B0000FF90EF90DF90CF9008952F923F924F92C9
:103B10005F926F927F928F929F92AF92BF92CF925D
:103B2000DF92EF92FF920F931F93DF93CF93CDB766
:103B3000DEB7A7970FB6F894DEBF0FBECDBF2C013E
:103B40007FA36EA3009709F4B1C06115710509F454
:103B5000ADC0DC018D909C901197F40120883188D4
:103B60009D96AD90BC909E979F966D907C90D097BF
:103B70008BE2DB011D928A95E9F7FE01319685E023
:103B8000DF011D928A95E9F7A114B10409F076C00E
:103B9000F4012288338886899789281A390A6EC0E9
:103BA000730100E010E0A114B10441F4D401569671
:103BB0006D917D918D919C9159972DC081149104A7
:103BC00021F1B2E0AB16B10400F1EEEFFFEFAE0E63
:103BD000BF1EB50180E090E022E030E0A20EB31EEF
:103BE000D40150962D913C91519740E050E00E94B5
:103BF000F32B9B01AC01F40182899389A489B589D7
:103C0000280F391F4A1F5B1F04C020E030E040E04E
:103C100050E0CA01B9016E0D7F1D801F911F1C82EB
:103C20001B82D401ED91FC918101061917090280D4
:103C3000F381E02DAE014A5F5F4F20E230E0ACEE51
:103C4000EA2EAAE1FA2E6E010894C11CD11C099536
:103C5000882361F18B819C81680E791E6214730444
:103C600088F0C401B5010E9404185C016624772421
:103C7000009741F4F201A3A0B4A008C02EA13FA177
:103C80003A8329838D81882309F48ACFD2019E96B5
:103C9000BC92AE929D97D0967C926E929F97EEA129
:103CA000FFA18081882319F081E001C080E0A79600
:103CB0000FB6F894DEBF0FBECDBFCF91DF911F913D
:103CC0000F91FF90EF90DF90CF90BF90AF909F90BB
:103CD0008F907F906F905F904F903F902F900895BE
:103CE0002F923F924F925F926F927F928F929F920C
:103CF000AF92BF92CF92DF92EF92FF920F931F93FA
:103D0000DF93CF93CDB7DEB7A8970FB6F894DEBF99
:103D10000FBECDBF98A78FA3009709F45CC1DC014B
:103D200014968D919C911597892B09F454C1169680
:103D30008D919C911797892B09F44DC168C1EDE4D1
:103D4000F3E08AE1DF011D928A95E9F7EFA1F8A57A
:103D5000F0934E03E0934D032184328443845484D2
:103D600059E0220C331C441C551C5A95D1F7C20152
:103D7000B101655F7F4F8F4F9F4F0190F081E02D24
:103D8000AE014F5F5F4F29E130E00995882309F4C8
:103D900045C1E981FA81FBA3EAA32C813D81FB8126
:103DA000FCA34E818F8198859EA38DA3E985FA851A
:103DB0006C857D856E887F88888C998C61147104F0
:103DC0008104910431F4309709F428C13F0188241B
:103DD00099246115710509F421C1C901A0E0B0E081
:103DE0008E8F9F8FA8A3B9A380E090E0242F30E0AE
:103DF00040E050E00E94F32B6A8F7B8F8C8F9D8F69
:103E0000840173012E8D3F8D48A159A1E21AF30A56
:103E1000040B150BE61AF70A080B190B8AA19BA1D4
:103E200001972DA13EA145E0220F331F4A95E1F7EE
:103E3000820F931F6AA17BA10E94122C80E090E068
:103E4000E61AF70A080B190B8CA1282F30E040E086
:103E500050E0C801B7010E94392C79018A0195EF21
:103E6000E9169FE0F90690E0090790E0190708F4C9
:103E7000D5C0A5EFEA16AFEFFA06A0E00A07A0E06A
:103E80001A0728F486E0EFA1F8A5808705C08BE02B
:103E9000AFA1B8A518968C9388E1EFE4F3E0DF01B9
:103EA0001D928A95E9F7EAA1FBA15F01CC24DD24EC
:103EB000C401B301A60195010E94F32B60934F0347
:103EC000709350038093510390935203C601B50140
:103ED0002E8D3F8D48A159A10E94F32B260E371E2F
:103EE000481E591E209253033092540340925503AA
:103EF00050925603AFA1B8A518968C91863029F040
:103F000064E070E080E090E004C062E070E080E097
:103F100090E022E030E040E050E0E20EF31E041FAB
:103F2000151FA80197010E94F32B6093570370930C
:103F300058038093590390935A034AA15BA150936D
:103F40005C0340935B035CA1852F90E0DC01EAA158
:103F5000FBA1AE9FC001AF9F900DBE9F900D11249D
:103F600090935E0380935D036A8D7B8D8C8D9D8D18
:103F7000A60195010E94F32B209153033091540325
:103F80004091550350915603620F731F841F951F74
:103F90006093630370936403809365039093660357
:103FA000ADA1BEA19D0140E050E0B5E0220F331F5E
:103FB000441F551FBA95D1F7620F731F841F951FB9
:103FC00060935F0370936003809361039093620337
:103FD0002DE433E002C020E030E0C901A8960FB61E
:103FE000F894DEBF0FBECDBFCF91DF911F910F912F
:103FF000FF90EF90DF90CF90BF90AF909F908F9009
:104000007F906F905F904F903F902F900895809198
:104010004D0390914E03892BF1F691CE10924E03F1
:1040200010924D03D8CF2F923F924F925F926F9292
:104030007F928F929F92AF92BF92CF92DF92EF9238
:10404000FF920F931F93DF93CF9300D00F92CDB7C2
:10405000DEB71C019B01009709F4D2C04115510540
:1040600009F4CEC0FA0101900020E9F7E41BF50B3A
:10407000CF010B966DE070E00E94122C862F8F5FAF
:104080008B83D90193964D905C9094974114510481
:1040900051F0AA24BB246501EE24FF248701662485
:1040A000772443010BC0F101E688F788008D118D5C
:1040B0006288738884889588570168011A82E6149B
:1040C000F7040805190509F06EC04114510409F4FC
:1040D00097C0E114F1040105110589F1C101B20194
:1040E0000E940418009751F5C101B20141E050E06F
:1040F0000E94BC188C01009709F482C00250104045
:10410000B80180E090E00E5F1F4FD10150962D91D5
:104110003C91519740E050E00E94F32B5B016C0111
:10412000F10182899389A489B589A80EB91ECA1E96
:10413000DB1EC101B8010E942B1D65C02C01F2E0FD
:104140004F16510420F4EE24FF2487011DC02EEFEA
:104150003FEF420E531EB20180E090E0A2E0B0E0DB
:104160004A0E5B1EF1012089318940E050E00E9437
:10417000F32B7B018C01F10182899389A489B58994
:10418000E80EF91E0A1F1B1FD10150968D919C91BC
:1041900051973C01882499246E0C7F1C801E911E2F
:1041A000570168011A82D101ED91FC910190F081D3
:1041B000E02DC801B701AE014F5F5F4F21E030E055
:1041C00009958823E9F08981853E11F0882379F4E7
:1041D000BA81BF5FBA83EB81BE17A8F480E290E09A
:1041E000A0E0B0E0E80EF91E0A1F1B1F68CF80E2B6
:1041F00090E0A0E0B0E0E80EF91E0A1F1B1F5CCFA4
:10420000AA24BB246501B501C6010F900F900F9041
:10421000CF91DF911F910F91FF90EF90DF90CF90A2
:10422000BF90AF909F908F907F906F905F904F90D6
:104230003F902F9008953F924F925F926F927F929E
:104240008F929F92AF92BF92CF92DF92EF92FF92A6
:104250000F931F93DF93CF93CDB7DEB7A0970FB621
:10426000F894DEBF0FBECDBFFC018B01009709F4AF
:104270001FC16115710509F41BC10190F081E02D8A
:1042800044805580DB019796AD90BD90CD90DC9039
:104290009A97E62E912EFB0101900020E9F73197C5
:1042A000FE2EF61A8F2D90E00C966DE070E00E94C5
:1042B000262C762ECE01019660E270E04BE050E0B5
:1042C0000E940829C8016EE270E00E944729FC01A3
:1042D0000097E1F09C012F5F3F4F81818823B1F06F
:1042E000D9010D900020E9F71197A21BB30B8A2F7B
:1042F0008095F80EBE01675F7F4F4A2FA43008F00B
:1043000043E0CB01B90150E00E94FF28CE010196A5
:10431000B8E0BF1588F06E2D792D4F2D50E00E942A
:10432000FF28F80180818E3231F581818E3209F4C7
:1043300082818823F9F01FC0DC018E2D992D9C010C
:10434000F90188E001900D928150E1F7D801919632
:104350008C91982F92959F70803A10F4905D01C0D7
:104360009F598F708A3010F4805D01C08F599F83F0
:10437000888701C077248981853E11F485E089838F
:10438000FCE08F2E912C8C0E9D1E85E1F401119284
:104390008A95E9F7D80190968C9190978C879196A1
:1043A0008D919C9192979C8F8B8F93968D919D91DF
:1043B0000D90BC91A02D8D8F9E8FAF8FB8A3672DD0
:1043C00070E0E5E0660F771FEA95E1F780E090E0A6
:1043D0006A0D7B1D8C1D9D1DAE014F5F5F4F20E25E
:1043E00030E0F2010995882309F462C0E980FE01FA
:1043F000329694018E2D8695E794EE24E794E82A70
:104400008191E80EE217F307A9F7F72C4E01089403
:10441000811C911C7DE0372E6FE0662E44C0C401E4
:104420006FEF70E040E250E00E940829F39CD00159
:1044300011241D97A00FB11F91E0F401E90FF11DA8
:104440008C918083892F8F5FF401E80FF11D10821A
:104450009E5F9B3019F09A3121F402C09EE001C0AA
:104460009CE18C91882321F09F3110F41196E5CFC7
:10447000F982F71419F48F2D806489836C86EE8697
:104480001D861B8E1C8EC601B501A40120E230E002
:10449000F201099580E290E0A0E0B0E0A80EB91E1C
:1044A000CA1EDB1EFA94FF2009F0B9CF81E001C0DB
:1044B00080E0A0960FB6F894DEBF0FBECDBFCF91BF
:1044C000DF911F910F91FF90EF90DF90CF90BF9001
:1044D000AF909F908F907F906F905F904F903F90A4
:1044E00008957F928F929F92AF92BF92CF92DF9268
:1044F000EF92FF920F931F93CF93DF936C015B01B9
:10450000EA01009709F49DC06115710509F499C08D
:10451000FB018081882309F494C04115510581F481
:1045200090C0C501682D772D0E941A29009751F47B
:10453000F60183A194A196A785A710AA17A681C00A
:10454000842E7D2EC601BE010E94851D882349F759
:10455000F601E080F180C70160E070E041E050E0EA
:104560000E94BC188C01009709F46BC0C701B80108
:104570000E942B1D8BE2FE0111928A95E9F780E1E2
:1045800088A302501040B80180E090E00E5F1F4FFA
:10459000F7012089318940E050E00E94F32BF701B8
:1045A0002289338944895589260F371F481F591F8F
:1045B0002FA338A749A75AA7AEE29A2E98821AA32A
:1045C00009A3C701BE010E941B218823B1F18FA15D
:1045D00098A5A9A5BAA58096A11DB11D8FA398A7DE
:1045E000A9A7BAA79982F60183A194A19AA389A346
:1045F000C701BE010E941B218823F9F0882D972D49
:10460000B5014FE150E00E9438291AA309A3C70160
:10461000B601AE010E9413206FA378A789A79AA7BD
:10462000611571058105910541F0C701BE010E9428
:104630001B21882311F081E005C0C701B8010E9449
:10464000461880E0DF91CF911F910F91FF90EF907E
:10465000DF90CF90BF90AF909F908F907F90089504
:10466000AF92BF92CF92DF92EF92FF920F931F9380
:10467000CF93DF938C017B01EA01009709F448C0D6
:104680006115710509F444C0FB018081882309F498
:104690003FC041155105E1F1B42EAD2EC801BE0158
:1046A0000E94851D882379F0C7016B2D7A2D0E9409
:1046B0001A29009799F7F80183A194A196A785A7D5
:1046C00010AA17A625C0F801C080D1808BE2FE0198
:1046D00011928A95E9F78B2D9A2DB7014FE150E0A1
:1046E0000E943829C601B801AE010E9413206FA3B1
:1046F00078A789A79AA7611571058105910541F0F1
:10470000C601BE010E941B21882319F081E001C06F
:1047100080E0DF91CF911F910F91FF90EF90DF909C
:10472000CF90BF90AF9008954F925F926F927F921B
:104730008F929F92AF92BF92CF92DF92EF92FF92B1
:104740000F931F93DF93CF93CDB7DEB72A970FB6A2
:10475000F894DEBF0FBECDBF2C015A016B0100974C
:1047600009F4E5C0DC0193960D911C919497ED91AD
:10477000FC91208931890115110599F0AB82BC8229
:10478000CD82DE8239018824992422273327A9018A
:1047900026193709480959092F83388749875A87C5
:1047A00020C0411551056105710509F4A9C0E6CF86
:1047B000D2018D919C91B8010E9404180097D9F004
:1047C000EB80FC800D811E812F81388549855A85BB
:1047D000E20EF31E041F151FEB82FC820D831E8365
:1047E0008C018B819C81AD81BE81681679068A0619
:1047F0009B06F0F2B4C078016B817C818D819E8133
:10480000660D771D881D991D615070408040904055
:10481000A40193010E94392CD2018D919C91B80181
:10482000A9010E94BC18009709F481C0012B21F452
:10483000F20194A383A37C01D2019596AD92BD921F
:10484000CD92DC929897A114B104C104D10421F453
:1048500094961C921E929397F20181919191BF01BF
:104860000E941B21882309F462C0A114B104C10471
:10487000D10429F4F20180819181B7013FC00B81FD
:104880001C812D813E816016710682069306C0F15F
:10489000D2010D911C910115110591F1B2E0EB16B9
:1048A000F10470F1C801B7010E9404184C018FEFA8
:1048B0009FEF9A838983D801ED91FC911197EE0CBB
:1048C000FF1CB70180E090E016962D913D914D912F
:1048D0005C911997620F731F841F951F0480F581E7
:1048E000E02DAE014F5F5F4F22E030E00995882355
:1048F00039F08114910421F0C801B4010E944618D6
:10490000F20185A596A5A7A5B0A9A816B906CA065D
:10491000DB0658F4D2019D96AD92BD92CD92DC9209
:10492000D097D2961C921E92D19781E001C080E070
:104930002A960FB6F894DEBF0FBECDBFCF91DF91A0
:104940001F910F91FF90EF90DF90CF90BF90AF90AD
:104950009F908F907F906F905F904F900895780117
:104960000115110509F448CF67CFCF92DF92EF927E
:10497000FF920F931F93CF93DF93EC016B0100978E
:1049800009F445C06115710509F441C08DA59EA5C6
:10499000AFA5B8A9413059F0413018F04230B9F50F
:1049A0000CC0FB01E080F1800281138113C0FB0188
:1049B000E080F1800281138109C0FB01E080F18079
:1049C000028113818DA19EA1AFA1B8A5E80EF91EA9
:1049D0000A1F1B1F8DA19EA1AFA1B8A58E159F0513
:1049E000A007B10738F4CE01B801A7010E949423B3
:1049F000882369F0EDA6FEA60FA718AB1AAA19AA7C
:104A0000F601E082F1820283138381E001C080E03D
:104A1000DF91CF911F910F91FF90EF90DF90CF909A
:104A200008952F923F924F925F926F927F928F9252
:104A30009F92AF92BF92CF92DF92EF92FF920F932D
:104A40001F93DF93CF9300D000D000D0CDB7DEB757
:104A50009E838D837A8369835C834B83009709F4FB
:104A600041C1672B09F43EC1452B09F43BC1DC0170
:104A70009D968D909D90AD90BC90D097FC0185A1A6
:104A800096A1A7A1B0A588159905AA05BB0508F4AC
:104A900029C10190F081E02D20883188AD81BE814F
:104AA000D1960D911C91D2970115110509F055C0B1
:104AB00093960D911C91949701151105A9F48114F9
:104AC0009104A104B10409F00DC1CF0160E070E0D0
:104AD00041E050E00E94BC188C01ED81FE8194A35E
:104AE00083A3009709F4FEC0AD81BE819D96CD9051
:104AF000DD90ED90FC90D097C114D104E104F10455
:104B000021F52BC0C418D508E608F708ED81FE8111
:104B100080819181B8010E940418009711F08C01E6
:104B200017C0C114D104E104F10409F0DBC0AD8168
:104B3000BE818D919C91B80141E050E00E94BC186B
:104B4000009709F4CFC08C0103C0210166247724AB
:104B5000C414D504E604F704A8F608942108310823
:104B6000822093200894211C311CAB80BC80ED81F5
:104B7000FE81C080D180C114D104F9F0023011054A
:104B8000E0F002501040B80180E090E00E5F1F4F4F
:104B9000D60150962D913C91519740E050E00E94F3
:104BA000F32B9B01AC01F60182899389A489B58915
:104BB000280F391F4A1F5B1F04C020E030E040E08F
:104BC00050E07101E818F908AE14BF0408F475014B
:104BD000D601ED91FC91C401A0E0B0E0280F391F8F
:104BE0004A1F5B1F0480F581E02DCA01B90149818C
:104BF0005A8197010995882309F448C0AE18BF0867
:104C0000C701A0E0B0E0ED81FE8125A536A547A54E
:104C100050A9280F391F4A1F5B1F25A736A747A792
:104C200050ABC701880D991D8215930508F180814D
:104C30009181B8010E940418009711F08C0116C0F0
:104C4000A114B10459F0ED81FE8180819181B801F8
:104C500041E050E00E94BC18009739F4AD81BE815C
:104C6000D2961C921E92D19711C08C01882499244F
:104C7000ED81FE8112AB01ABA114B10439F0898141
:104C80009A818E0D9F1D9A83898371CFED81FE815C
:104C900085A596A5A7A5B0A9E5A0F6A007A110A592
:104CA000E816F9060A071B07C0F485A396A3A7A375
:104CB000B0A781919191BF010E941B21882369F4C3
:104CC000AD81BE819D96AD90BC909E97AE18BF08F9
:104CD000FD01E5A6F6A607A710AB4B815C814A193A
:104CE0005B0902C04FEF5FEFCA0126960FB6F8943A
:104CF000DEBF0FBECDBFCF91DF911F910F91FF900F
:104D0000EF90DF90CF90BF90AF909F908F907F906B
:104D10006F905F904F903F902F900895CF93DF93C7
:104D2000AC01DB01009789F16115710571F1909675
:104D30008C91909784FF29C080919A0390919B0356
:104D4000892B19F4EAE9F3E008C08091CB03909134
:104D5000CC03892BD1F4EBECF3E09F012E5F3F4FA6
:104D6000BD018BE2EB010990BE01E90109929E01B0
:104D70008150C1F75183408391968D919C91929778
:104D800096A785A710AA17A602C0E0E0F0E0CF0121
:104D9000DF91CF910895CF93DF939C01FB010097A2
:104DA00031F06115710519F080A184FF23C020E066
:104DB00030E0C901DF91CF910895C9E6D3E0DF016A
:104DC0008BE20D9009928150E1F7309368032093B4
:104DD0006703109294031092950310929603109219
:104DE000970381A192A1909399038093980327E65A
:104DF00033E0DFCF8091670390916803892BB9F688
:104E0000DCCF6F927F928F929F92AF92BF92CF92A0
:104E1000DF92EF92FF920F931F93CF93DF934C019A
:104E2000EB017A01009709F467C06115710509F477
:104E300063C08881882309F45FC04115510509F4D6
:104E40005BC08F3209F421968BE2F70111928A95AB
:104E5000E9F780E1F70180A3370101C0E50188810E
:104E6000882309F44BC0C401B7010E948E266C014F
:104E7000009709F441C0CE016FE270E00E940F2953
:104E8000009739F0482F4C1B5C010894A11CB11C01
:104E90002AC0FE0101900020E9F731974E2F4C1BEC
:104EA0005E01A40EB11C1FC0F30101900020E9F7C0
:104EB0003197E619F709E017F107B9F4CE01B3010C
:104EC000A8010E942A29009781F4F601118210821C
:104ED0000C0F1D1FF8018081882381F0F70180A14C
:104EE00084FDBCCF09C0042F10E0C601B7010E94A9
:104EF000851D8823C9F612C080E001C081E0DF91E2
:104F0000CF911F910F91FF90EF90DF90CF90BF90C6
:104F1000AF909F908F907F906F900895F6011182CF
:104F200010829DCF882329F1813019F42FEC30E0D5
:104F300015C0823019F422E230E010C0833019F439
:104F400020E130E00BC0843019F420EA31E006C0E3
:104F50002FEC30E0853011F427E630E082E08093DA
:104F6000C0002093C4003093C50088E98093C1003D
:104F7000089520E433E0F2CF1F93182F8A3019F4FC
:104F80008DE00E94BC278091C00085FFFCCF10936C
:104F9000C6001F9108951F93182F82958F708A3035
:104FA00010F4805D01C0895A0E94BC27812F90E0D7
:104FB0008F709070212F2F700A971CF4822F805DC4
:104FC00002C0822F895A0E94BC271F9108951F9307
:104FD000182F892F0E94CB27812F0E94CB271F914A
:104FE0000895EF92FF920F931F937B018C01C801EC
:104FF000AA27BB270E94E727C7010E94E7271F9126
:105000000F91FF90EF900895CF92DF92FF920F9350
:105010001F93CF93DF936C01C0E1D7E240E000E043
:1050200010E0C601BE010E94122CF62E662329F460
:10503000442319F4C130D10529F48F2D805D0E94DD
:10504000BC2741E0CE016AE070E00E94122C0F5FA5
:105050001F4F0530110571F08F2D90E09C012C9FA2
:10506000C0012D9F900D3C9F900D1124C81AD90AA4
:10507000EB01D7CFDF91CF911F910F91FF90DF9080
:10508000CF9008954F925F926F927F928F929F92EE
:10509000AF92BF92CF92DF92EF92FF920F931F9346
:1050A000CF93DF935B016C01E12C9AECF92E9AE926
:1050B000092F9BE3192F4424C0E0D0E0C601B501BD
:1050C000A80197010E94392C922E222341F44420FA
:1050D00031F481E0E816F1040105110531F4892D60
:1050E000805D0E94BC2744244394C801B7012AE094
:1050F00030E040E050E00E94392C822E732E642E66
:10510000552E2196CA30D105A9F0692D70E080E0B6
:1051100090E0A80197010E94F32BA61AB70AC80ACB
:10512000D90A282D372D462D552DC901DA017C01CC
:105130008D01C4CFDF91CF911F910F91FF90EF9020
:10514000DF90CF90BF90AF909F908F907F906F90A7
:105150005F904F900895CF93DF93EC0103C02196A9
:105160000E94BC2788818823D1F7DF91CF910895D1
:10517000CF93DF93EC01FE0121968491882319F0EF
:105180000E94BC27F8CFDF91CF9108958091C10094
:1051900080688093C100789483B7816083BF8895CD
:1051A00083B78E7F83BFF8948091FE039091FF03B5
:1051B000892B19F48091870707C0E091FE03F091D5
:1051C000FF03ED5FFB4F80818D3009F48AE0089585
:1051D000FB01DC018D91059080190110D9F3990B29
:1051E0000895FB01DC014150504030F08D91059055
:1051F000801919F40020B9F7881B990B0895FB0159
:10520000DC0102C001900D9241505040D8F7089542
:10521000DC0101C06D9341505040E0F70895FC015E
:105220008191861721F08823D9F79927089531971E
:10523000CF010895FB01DC018D91019080190110CF
:10524000D9F3990B0895FB01DC0101900D92002028
:10525000E1F70895FB01DC014150504030F08D91A1
:105260000190801919F40020B9F7881B990B089553
:10527000FB01DC014150504048F001900D920020AC
:10528000C9F701C01D9241505040E0F70895FC015C
:1052900081E090E00190061609F4CF010020D1F7DB
:1052A00001970895AEE0B0E0E8E5F9E20C94692CCE
:1052B0000D891E8986E08C831A8309838FEF9FE70F
:1052C0009E838D839E01275E3F4FCE0101966F899D
:1052D000788DA9010E9476292F813885020F131F2E
:1052E000F80110822E96E4E00C94852CABE0B0E03F
:1052F000ECE7F9E20C945B2C3C012B015A01FC0118
:1053000017821682838181FD03C06FEF7FEFC6C1D4
:105310009AE0892E1E010894211C311CF30123817F
:10532000F20123FD859123FF81912F01882309F448
:10533000B2C1853239F423FD859123FF81912F017C
:10534000853229F490E0B3010E94692BE7CF982FB2
:10535000FF24EE249924FFE1FF15D0F09B3269F081
:105360009C3228F4903259F0933291F40EC09D3261
:1053700049F0903369F441E024C052E0F52A84E01A
:10538000F82A28C098E0F92A25C0E0E1FE2A22C0C8
:10539000F7FC29C0892F80538A3070F4F6FE05C0CF
:1053A000989C902C1124980E15C0E89CE02C112498
:1053B000E80EF0E2FF2A0EC09E3229F4F6FC6BC123
:1053C00040E4F42A07C09C3619F450E8F52A02C0DC
:1053D000983649F4F20123FD959123FF91912F0115
:1053E000992309F0B8CF892F8554833018F0805263
:1053F000833038F444E050E0A40EB51E5FE35983D7
:105400000FC0933631F0933779F0933509F056C0D9
:1054100020C0F5018081898342E050E0A40EB51ED2
:10542000610101E010E012C0F501C080D180F6FCFE
:1054300003C06FEF7FEF02C0692D70E042E050E0E3
:10544000A40EB51EC6010E945E2B8C015FE7F522FB
:1054500014C0F501C080D180F6FC03C06FEF7FEF70
:1054600002C0692D70E042E050E0A40EB51EC601F6
:105470000E94532B8C0150E8F52AF3FE07C01AC096
:1054800080E290E0B3010E94692BEA948E2D90E0B7
:1054900008171907A8F30EC0F601F7FC8591F7FE6F
:1054A00081916F0190E0B3010E94692BE110EA94B1
:1054B000015010400115110579F7EAC0943611F03A
:1054C000993669F5F7FE08C0F501208131814281E6
:1054D000538184E090E00AC0F501808191819C01B4
:1054E000442737FD4095542F82E090E0A80EB91E66
:1054F0009FE6F92257FF09C05095409530952195B8
:105500003F4F4F4F5F4FE0E8FE2ACA01B901A101AA
:105510002AE030E00E94952BD82ED21840C0953753
:1055200029F41F2D1F7E2AE030E01DC01F2D197F9A
:105530009F3661F0903720F4983509F0ACC00FC069
:10554000903739F0983709F0A6C004C028E030E061
:105550000AC0106114FD146020E130E004C014FDA5
:10556000166020E132E017FF08C0F501608171810B
:105570008281938144E050E008C0F50180819181EF
:10558000BC0180E090E042E050E0A40EB51EA10115
:105590000E94952BD82ED2188FE7F82EF122F6FE16
:1055A0000BC05EEFF522D91438F4F4FE07C0F2FC0C
:1055B00005C08FEEF82202C01D2D01C0192DF4FE8A
:1055C0000DC0FE01ED0DF11D8081803319F499EEBF
:1055D000F92208C01F5FF2FE05C003C08F2D867838
:1055E00009F01F5F0F2DF3FC14C0F0FE0FC01E1555
:1055F00010F09D2C0BC09D2C9E0C911A1E2D06C0E8
:1056000080E290E0B3010E94692B1F5F1E15C0F37A
:1056100004C01E1510F4E11A01C0EE2404FF0FC0EF
:1056200080E390E0B3010E94692B02FF1DC001FDE1
:1056300003C088E790E00EC088E590E00BC0802FA3
:10564000867891F001FF02C08BE201C080E2F7FC96
:105650008DE290E0B3010E94692B06C080E390E0E8
:10566000B3010E94692B9A94D914C0F3DA94F10122
:10567000ED0DF11D808190E0B3010E94692BDD20CA
:10568000A9F706C080E290E0B3010E94692BEA947A
:10569000EE20C1F743CEF30166817781CB012B96D3
:1056A000E2E10C94772CFC010590615070400110F0
:1056B000D8F7809590958E0F9F1F0895FC0161503B
:1056C000704001900110D8F7809590958E0F9F1F24
:1056D00008950F931F93CF93DF938C01EB018B8180
:1056E00081FF1BC082FF0DC02E813F818C819D8177
:1056F0002817390764F4E881F9810193F983E88375
:1057000006C0E885F985802F0995892B31F48E81B3
:105710009F8101969F838E8302C00FEF1FEFC80108
:10572000DF91CF911F910F910895FA01AA27283098
:1057300051F1203181F1E8946F936E7F6E5F7F4F5E
:105740008F4F9F4FAF4FB1E03ED0B4E03CD0670FDA
:10575000781F891F9A1FA11D680F791F8A1F911D2D
:10576000A11D6A0F711D811D911DA11D20D009F47D
:1057700068943F912AE0269F11243019305D3193BF
:10578000DEF6CF010895462F4770405D4193B3E0A8
:105790000FD0C9F7F6CF462F4F70405D4A3318F04F
:1057A000495D31FD4052419302D0A9F7EACFB4E000
:1057B000A6959795879577956795BA95C9F70097B8
:1057C0006105710508959B01AC010A2E0694579559
:1057D000479537952795BA95C9F7620F731F841FB0
:1057E000951FA01D0895629FD001739FF001829FB5
:1057F000E00DF11D649FE00DF11D929FF00D839F60
:10580000F00D749FF00D659FF00D9927729FB00DFC
:10581000E11DF91F639FB00DE11DF91FBD01CF010F
:1058200011240895AA1BBB1B51E107C0AA1FBB1F6F
:10583000A617B70710F0A61BB70B881F991F5A951C
:10584000A9F780959095BC01CD01089597FB092E8D
:1058500007260AD077FD04D0E5DF06D000201AF431
:10586000709561957F4F0895F6F7909581959F4FBC
:105870000895A1E21A2EAA1BBB1BFD010DC0AA1F91
:10588000BB1FEE1FFF1FA217B307E407F50720F0A9
:10589000A21BB30BE40BF50B661F771F881F991F24
:1058A0001A9469F760957095809590959B01AC016D
:1058B000BD01CF0108952F923F924F925F926F9258
:1058C0007F928F929F92AF92BF92CF92DF92EF9290
:1058D000FF920F931F93CF93DF93CDB7DEB7CA1B11
:1058E000DB0B0FB6F894DEBF0FBECDBF09942A883C
:1058F000398848885F846E847D848C849B84AA84E4
:10590000B984C884DF80EE80FD800C811B81AA8170
:10591000B981CE0FD11D0FB6F894DEBF0FBECDBF3B
:08592000ED010895F894FFCF9A
:105928002F002D310A004C4F47253035752E7478DD
:1059380074005345514C4F472E7478740001030589
:0A59480007090E10121416181C1E99
:00000001FF
