:100000000C943A060C9457060C9457060C94570619
:100010000C9457060C9457060C9457060C945706EC
:100020000C9457060C9457060C9457060C945706DC
:100030000C9457060C9457060C9457060C945706CC
:100040000C9457060C9457060C9459060C945706BA
:100050000C9457060C9457060C9457060C945706AC
:100060000C9457060C945706293A2000746F6F20A1
:100070006D616E7920617267756D656E74732800AD
:1000800045786974696E670A0078004E6577206666
:10009000696C65206E756D6265722072657365743A
:1000A00020746F207A65726F0A003400436F6D6DA3
:1000B000616E642070726F6D70740A00330041705D
:1000C00070656E642066696C65206C6F6767696E29
:1000D000670A0032004E65772066696C65206C6F98
:1000E0006767696E670A003100782920457869746E
:1000F0000A003429205265736574206E6577206686
:10010000696C65206E756D6265720A003329204343
:100110006F6D6D616E642070726F6D70740A003265
:100120002920417070656E642066696C65206C6F73
:100130006767696E670A003129204E657720666916
:100140006C65206C6F6767696E670A004368616E53
:10015000676520746F3A0A000A00436F6D6D616E27
:100160006400417070656E642066696C65004E6560
:10017000772066696C650043757272656E742062E3
:100180006F6F74206D6F64653A20000A5379737441
:10019000656D20436F6E66696775726174696F6E15
:1001A0000A000A45786974696E670A0032000A43DA
:1001B00068616E67696E67204672616D6520466F83
:1001C000726D61742E20506C656173652072657369
:1001D0007461727420636F6E6E656374696F6E2EE6
:1001E0002E2E200A0031000A4E4F54453A20434F2C
:1001F0004E4E454354494F4E2057494C4C204E4596
:10020000454420544F2042452052455354415254B6
:100210004544204946204348414E474544210A0071
:10022000322920457869740A002073746F70206247
:1002300069742873292E0A003100320031292043C5
:1002400068616E676520746F20002073746F702082
:100250006269742873292E0A00310032000A0A43A9
:10026000757272656E742053657474696E673A2096
:10027000000A45786974696E670A0038000A476F9A
:10028000696E6720746F203131353230306270739F
:100290002E2E2E0A0037000A476F696E6720746F92
:1002A0002035373630306270732E2E2E0A0036001D
:1002B0000A476F696E6720746F20333834303062BC
:1002C00070732E2E2E0A0035000A476F696E672064
:1002D000746F2031393230306270732E2E2E0A0046
:1002E00034000A476F696E6720746F2039363030EA
:1002F0006270732E2E2E0A0033000A476F696E67F4
:1003000020746F20343830306270732E2E2E0A0025
:1003100032000A476F696E6720746F2032343030C4
:100320006270732E2E2E0A0031003829204578691C
:10033000740A003729205365742042617564207265
:10034000617465203131353230300A00362920534E
:10035000657420426175642072617465203537369A
:1003600030300A00352920536574204261756420BD
:10037000726174652033383430300A0034292053D8
:100380006574204261756420726174652031393270
:1003900030300A003329205365742042617564208F
:1003A0007261746520393630300A00322920536575
:1003B0007420426175642072617465203438303075
:1003C0000A003129205365742042617564207261EE
:1003D000746520323430300A004368616E676520EE
:1003E000746F3A0A003030206270730A0031313580
:1003F000320035373600333834003139320039367F
:100400000034380032340043757272656E743A20DD
:10041000000A4261756420436F6E66696775726198
:1004200074696F6E3A0A0073657269616C09090933
:100430003A204D656E7520746F2073657420626973
:1004400074206C656E6774682C20706172697479B1
:1004500020616E642073746F702062697473202849
:100460007269676874206E6F772C206A75737420C8
:1004700073746F702062697473292E0A006261754B
:10048000640909093A204D656E7520746F20636F09
:100490006E66696775726520626175642072617449
:1004A000650A007365740909093A204D656E752067
:1004B000746F20636F6E66696775726520737973F8
:1004C00074656D20626F6F74206D6F64650A000A39
:1004D0004D656E75733A0A0073796E630909093ABE
:1004E00020456E737572657320616C6C2062756651
:1004F0006665726564206461746120697320777237
:10050000697474656E20746F20746865206361720D
:10051000640A00696E69740909093A205265696EB6
:10052000697469616C697A657320616E64207265B3
:100530006F70656E7320746865206D656D6F72797C
:1005400020636172640A006469736B0909093A20C7
:1005500053686F77732063617264206D616E756696
:10056000616374757265722C207374617475732C79
:100570002066696C6573797374656D206361706161
:100580006369747920616E64206672656520737496
:100590006F726167652073706163650A0073697AC1
:1005A00065203C66696C653E09093A20577269749A
:1005B000652073697A65206F662066696C652074B2
:1005C0006F207465726D696E616C0A00726561649A
:1005D000203C66696C653E203C73746172743E20F9
:1005E0003C6C656E6774683E09093A2057726974FD
:1005F0006573204153434949203C6C656E677468BC
:100600003E207061727473206F66203C66696C6571
:100610003E20746F20746865207465726D696E6128
:100620006C207374617274696E67206174203C730E
:10063000746172743E2E204F6D6D6974203C73742A
:100640006172743E20616E64203C6C656E677468F4
:100650003E20746F20726561642077686F6C65203E
:1006600066696C650A00636174203C66696C653E6E
:1006700009093A20577269746573206120686578AA
:1006800064756D70206F66203C66696C653E2074F1
:100690006F20746865207465726D696E616C0A0004
:1006A0006C730909093A2053686F77732074686581
:1006B00020636F6E74656E74206F662074686520A9
:1006C00063757272656E74206469726563746F72AB
:1006D000792E205573652077696C6463617264209C
:1006E000746F20646F20612077696C646361726449
:1006F000206C697374696E67206F662066696C652B
:100700007320696E2063757272656E7420646972FD
:100710006563746F72790A006364202E2E09093AAA
:10072000204368616E67657320746F206C6F776516
:1007300072206469726563746F727920696E2074C7
:100740007265650A006364203C6469726563746F56
:1007500072793E09093A204368616E6765732063C8
:10076000757272656E7420776F726B696E67206444
:1007700069726563746F727920746F203C6469726A
:100780006563746F72793E0A006D64203C6469721F
:100790006563746F72793E093A20437265617465CE
:1007A000732061206469726563746F72792063617C
:1007B0006C6C6564203C6469726563746F72793E29
:1007C0000A00726D203C66696C653E09093A204456
:1007D000656C65746573203C66696C653E2E2055BA
:1007E00073652077696C646361726420746F206440
:1007F0006F20612077696C64636172642072656D3B
:100800006F76616C206F662066696C65730A00778D
:1008100072697465203C66696C653E203C6F666653
:100820007365743E093A2057726974657320746564
:10083000787420746F203C66696C653E2C2073745C
:10084000617274696E672066726F6D203C6F6666B8
:100850007365743E2E205468652074657874206931
:100860007320726561642066726F6D207468652004
:10087000554152542C206C696E65206279206C6958
:100880006E652E2046696E697368207769746820EA
:10089000616E20656D707479206C696E650A006107
:1008A0007070656E64203C66696C653E09093A208B
:1008B000417070656E6473207465787420746F2065
:1008C000656E64206F66203C66696C653E2E205420
:1008D000686520746578742069732072656164208E
:1008E00066726F6D20746865205541525420696EA0
:1008F00020612073747265616D20616E642069737C
:10090000206E6F74206563686F65642E2046696E83
:100910006973682062792073656E64696E6720432D
:1009200074726C2B7A20284153434949203236296E
:100930000A006E6577203C66696C653E09093A20BD
:1009400043726561746573203C66696C653E0A009C
:10095000417661696C61626C6520636F6D6D616E7B
:1009600064733A0A000A4F70656E4C6F67207631E7
:100970002E350A007E006572726F7220777269747C
:10098000696E6720746F2066696C650A0065727213
:100990006F722077726974696E6720746F20666960
:1009A0006C650A006572726F722077726974696E85
:1009B0006720746F2066696C650A006572726F72D9
:1009C0002077726974696E6720746F2066696C6540
:1009D0000A006572726F722077726974696E67209F
:1009E000746F2066696C650A006572726F72207799
:1009F000726974696E6720746F2066696C650A009D
:100A0000216572726F72207365656B696E67206F06
:100A10006E2000216572726F72206F70656E696E54
:100A2000672000756E6B6E6F776E20636F6D6D6102
:100A30006E643A20006572726F722073796E63691A
:100A40006E67206469736B0A0073796E6300657268
:100A5000726F72206372656174696E672064697277
:100A60006563746F72793A20006D6400617070651F
:100A70006E64006572726F722077726974696E6756
:100A800020746F2066696C650A006572726F72204F
:100A90007365656B696E67206F6E20006572726F9B
:100AA00072206F70656E696E672000777269746579
:100AB000006572726F72206372656174696E67207F
:100AC00066696C653A20006E6577006572726F72B8
:100AD0002064656C6574696E672066696C653A2090
:100AE00000726D0073697A65006572726F722072B0
:100AF000656164696E67206469736B20696E666FF7
:100B00000A006469736B006572726F7220736565A9
:100B10006B696E67206F6E20006572726F72206F56
:100B200070656E696E67200072656164006572723F
:100B30006F72206F70656E696E672000636174006C
:100B40006C73006469726563746F7279206E6F7480
:100B500020666F756E643A200063640073657400EC
:100B600073657269616C00626175640068656C70C0
:100B7000003F0046696C652073797374656D206968
:100B80006E697469616C697A65640A00436C6F739D
:100B9000696E6720646F776E2066696C6520737973
:100BA0007374656D0A00696E697400667265653AF2
:100BB00020202000666F726D61743A200077722EDB
:100BC00070722E3A2000636F70793A202020004D19
:100BD000420A0073697A653A2020200064617465D6
:100BE0003A2020200073657269616C3A20307800E9
:100BF0007265763A202020200070726F643A2020BF
:100C000020006F656D3A20202020006D616E7566B2
:100C10003A202030780021546F6F206D616E79206A
:100C20006C6F67733A32210021546F6F206D616ED3
:100C300079206C6F67733A3121004572726F7220B0
:100C40006372656174696E67205345514C4F470A62
:100C5000004372656174696E67205345514C4F477C
:100C60000A00320031004003A001CF0068003400C8
:100C70002200100011241FBECFEFD8E0DEBFCDBF91
:100C800011E0A0E0B1E0E8E9FCE502C005900D92BA
:100C9000A033B107D9F717E0A0E3B1E001C01D927E
:100CA000A93AB107E1F70E941D140C944A2E0C9446
:100CB00000001F920F920FB60F9211242F938F9363
:100CC0009F93EF93FF93E0910404F09105048091CA
:100CD000C600E65FFB4F8083809104049091050479
:100CE000019690930504809304048BB190E28927C8
:100CF0008BB980910404909105048458934021F4A9
:100D00001092050410920404FF91EF919F918F912E
:100D10002F910F900FBE0F901F901895F999FECF4D
:100D200092BD81BD60BDFA9AF99A0895F999FECFF6
:100D300092BD81BDF89A80B508959C01220F331FA2
:100D400081E006C085BB16BCA89BFECF2050314079
:100D500091E021303907B0F781E085BB822F819582
:100D600086BDA89BFECF0895CF93DF93EC0105C00D
:100D700088EE93E00E949D0621972097C9F7DF91A6
:100D8000CF9108950F931F93CF93DF93C0E0D0E0EE
:100D9000082F10E00BC05D9A84E690E00E94B40634
:100DA0005D9884E690E00E94B4062196C017D107B2
:100DB00094F380ED97E00E94B406C0E0D0E0F6CF57
:100DC0000F931F93509A589A48991BC0459A10E068
:100DD00000E289E190E00E94B4068BB180278BB9D4
:100DE00048990FC089E190E00E94B40685B1802740
:100DF00085B9489906C01F5F183259F721E030E0E5
:100E000002C020E030E0C9011F910F910895E0E396
:100E1000F1E020E080819181892B19F0828181119C
:100E20002F5F339681E0EC33F807A1F7822F089506
:100E3000AC01E0E3F1E020E080819181892B19F0A1
:100E4000828181112F5F339681E0EC33F807A1F79F
:100E5000243060F4822F90E0FC01EE0FFF1FE80FBA
:100E6000F91FE05DFE4F5183408362830895AC011A
:100E700020E030E070E00DC0FA01E20FF31F808146
:100E800090E0C0970A9718F040E050E005C02F5F4F
:100E90003F4F2617370784F3CA010895FC01DB0191
:100EA00008C0891721F08F3311F080E00895319642
:100EB00011969C919923F1F080818A3291F71AC0A2
:100EC00080818A3259F431968081882311F481E03F
:100ED00008959D012F5F3F4FAF0110C0891711F09A
:100EE0008F3319F43196119609C0FA01D9012F5F99
:100EF0003F4F04C020E030E040E050E09C91992357
:100F0000F9F601C0319690819A32E1F380E099239D
:100F100009F481E0089585E699E00E94702A80E551
:100F200099E00E94702A82E399E00E94702A8FE97A
:100F300098E00E94702A8FE098E00E94702A82EC6C
:100F400097E00E94702A89E897E00E94702A85E461
:100F500097E00E94702A88E197E00E94702A80EA58
:100F600096E00E94702A86E696E00E94702A8CEC39
:100F700095E00E94702A8DE995E00E94702A87E42E
:100F800095E00E94702A83E195E00E94702A88ED26
:100F900094E00E94702A8FEC94E00E94702A83EA09
:100FA00094E00E94702A8DE794E00E94702A87E204
:100FB00094E00E94702A08951F93CF93DF93282F07
:100FC000EB01E0E3F1E010E080819181892B19F0E1
:100FD000828181111F5F339681E0EC33F807A1F71E
:100FE000211710F080E013C08CE690E00E94702A78
:100FF000812F90E00E94BC2988E690E00E94702A30
:10100000CE010E94632A8AE00E94742981E0DF9168
:10101000CF911F910895CF93DF93EC018CE0E0E333
:10102000F1E0DF011D928A95E9F750E041E0A62F3B
:10103000B0E039C0242F30E0FE01E20FF31F8081C1
:10104000803229F02F5F3F4F2A173B0759F5842F35
:1010500090E001968A179B0709F4462FE0E3F1E040
:1010600020E080819181892B19F0828181112F5F8D
:10107000339681E0EC33F807A1F7243088F4822F0F
:1010800090E0FC01EE0FFF1FE80FF91FE05DFE4F3F
:10109000CE01850F911D91838083842F851B8283D0
:1010A0004F5F542F4F5F461728F2E0E3F1E020E056
:1010B00080819181892B19F0828181112F5F339674
:1010C000A1E0EC33FA07A1F7822FDF91CF910895C9
:1010D000982F89E1E0E9F7E0DF011D928A95E9F7B1
:1010E0009430E8F4892F90E0FC01EE0FFF1FE80F29
:1010F000F91FE05DFE4F608171816115710579F026
:101100004281442361F04A3118F049E150E001C0C6
:1011100050E080E997E00E94F02A9C0102C020E0A4
:1011200030E0C9010895BF92CF92DF92EF92FF9213
:101130000F931F93CF93DF93EC01B62E60E070E026
:101140004B2D50E00E94C02A00E0CB2CDD240894F7
:10115000C108D10823C00E947E2A182F883011F0C0
:101160008F3789F40023D1F00150FE01E00FF11D0B
:10117000108288E00E94742980E20E94742988E02D
:101180000E9474290BC00E947429FE01EE0DFF1D00
:101190001A3011F4108207C010830F5FE02EFF2475
:1011A000EC14FD04C4F2CE016B2D0E940B08802FBD
:1011B000DF91CF911F910F91FF90EF90DF90CF9033
:1011C000BF900895DF92EF92FF920F931F93DF93EA
:1011D000CF9300D000D00F92CDB7DEB781E090E082
:1011E000F999FECFE92E92BDD82E81BDF89AF0B4C0
:1011F0008E010F5F1F4F8BE891E00E94702A87E7F6
:1012000091E00E94702AFF2019F48EE691E00BC055
:1012100081E0F81619F482E691E005C082E0F81644
:1012200021F48AE591E00E94702A88E591E00E940D
:10123000702A8CE491E00E94702A87E391E00E947A
:10124000702A8FE191E00E94702A8CE091E00E9468
:10125000702A82EF90E00E94702A89EE90E00E944E
:10126000702A8EE30E947429C80165E00E949308E9
:10127000882309F2C80167EE70E00E94A02A892B3A
:1012800049F485ED90E00E94702AF999FECFE2BC06
:10129000D1BC3DC0C80163ED70E00E94A02A892B3B
:1012A00051F48EEB90E00E94702AF999FECFE2BCD7
:1012B000D1BC81E010C0C8016CEB70E00E94A02A94
:1012C000892B59F48CEA90E00E94702AF999FECF9C
:1012D000E2BCD1BC82E080BD1BC0C8016AEA70E0FC
:1012E0000E94A02A892BB9F48BE890E00E94702A12
:1012F00082E090E0F999FECF92BD81BD10BCFA9AD0
:10130000F99A83E090E0F999FECF92BD81BD10BCBF
:10131000FA9AF99A0CC0C80169E870E00E94A02A04
:10132000892B09F068CF80E890E00E94702A0F9026
:101330000F900F900F900F90CF91DF911F910F9111
:10134000FF90EF90DF900895DF92EF92FF920F935E
:101350001F93DF93CF9300D000D00F92CDB7DEB7AD
:1013600084E090E0F999FECFD92E92BD082F81BD7F
:10137000F89A10B51F3F09F411E07E010894E11CB2
:10138000F11C8DE592E00E94702A123019F48BE571
:1013900092E002C089E592E00E94702A8AE492E01D
:1013A0000E94702A8CE392E00E94702A113019F496
:1013B0008AE392E002C088E392E00E94702A89E208
:1013C00092E00E94702A80E292E00E94702A87EEEA
:1013D00091E00E94702A8EE30E947429C70165E0A3
:1013E0000E949308882369F2C70165EE71E00E94AC
:1013F000A02A892BE1F48EEA91E00E94702A123033
:1014000031F48091C2008093C20011E008C0113015
:1014100031F48091C20088608093C20012E0F99993
:10142000FECFD2BC01BD10BDFA9AF99A0CC0C7011B
:101430006CEA71E00E94A02A892B09F0A2CF82EA0F
:1014400091E00E94702A0F900F900F900F900F90D4
:10145000CF91DF911F910F91FF90EF90DF90089552
:10146000DF92EF92FF920F931F93DF93CF9300D001
:1014700000D00F92CDB7DEB780E090E0F999FECFB3
:10148000E92E92BDD82E81BDF89AF0B48E010F5F7F
:101490001F4F81E194E00E94702A87E094E00E944F
:1014A000702AFF2019F484E094E023C081E0F8164C
:1014B00019F481E094E01DC082E0F81619F48EEF73
:1014C00093E017C083E0F81619F48AEF93E011C097
:1014D00084E0F81619F486EF93E00BC085E0F81667
:1014E00019F482EF93E005C086E0F81621F48DEE42
:1014F00093E00E94702A85EE93E00E94702A89EDA5
:1015000093E00E94702A82EC93E00E94702A8BEA9A
:1015100093E00E94702A84E993E00E94702A8CE78D
:1015200093E00E94702A84E693E00E94702A8CE483
:1015300093E00E94702A83E393E00E94702A8AE27B
:1015400093E00E94702A8EE30E947429C80165E02E
:101550000E949308882309F49CCFC80168E273E0D5
:101560000E94A02A892B51F482E193E00E94702A04
:10157000F999FECFE2BCD1BC10BC69C0C80160E1E2
:1015800073E00E94A02A892B51F48AEF92E00E9416
:10159000702AF999FECFE2BCD1BC81E057C0C801E6
:1015A00068EF72E00E94A02A892B51F482EE92E04B
:1015B0000E94702AF999FECFE2BCD1BC82E046C0FD
:1015C000C80160EE72E00E94A02A892B51F489ECD8
:1015D00092E00E94702AF999FECFE2BCD1BC83E070
:1015E00035C0C80167EC72E00E94A02A892B51F433
:1015F00080EB92E00E94702AF999FECFE2BCD1BC48
:1016000084E024C0C8016EEA72E00E94A02A892BFF
:1016100069F487E992E00E94702AF999FECFE2BC52
:10162000D1BC85E080BDFA9AF99A14C0C80165E979
:1016300072E00E94A02A892B81F48DE792E00E943B
:10164000702AF999FECFE2BCD1BC86E080BDFA9A3F
:10165000F99A85E00E94C2060CC0C8016BE772E0EF
:101660000E94A02A892B09F014CF81E792E00E9402
:10167000702A0F900F900F900F900F90CF91DF91E5
:101680001F910F91FF90EF90DF900895CF92DF921E
:10169000EF92FF920F931F93CF93DF93EC01162FDE
:1016A00060E070E0412F50E00E94C02A00E0C12EAF
:1016B000DD240894C108D10823C00E947E2A182F77
:1016C000883011F08F3789F40023D1F00150FE01EA
:1016D000E00FF11D108288E00E94742980E20E94D0
:1016E000742988E00E9474290BC00E947429FE01AD
:1016F000EE0DFF1D1A3111F4108207C010830F5F29
:10170000E02EFF24EC14FD04C4F2802FDF91CF9172
:101710001F910F91FF90EF90DF90CF9008950F935E
:101720001F93DF93CF93CDB7DEB7AB970FB6F89487
:10173000DEBF0FBECDBF0E94C718882319F483E017
:101740000E94C2060E94D21E89E997E167E578E10E
:1017500049EA56E120E639E100E00E9449149093FD
:10176000090480930804892B79F489E997E167E5F6
:1017700078E149EA56E120E639E10FEF0E94491489
:1017800090930904809308048091080490910904BF
:101790000E942D20909303048093020460E071E086
:1017A0008E010F5F1F4FA8010E94BE288091020486
:1017B00090910304B8010E944B2890938F07809367
:1017C0008E07AB960FB6F894DEBF0FBECDBFCF919C
:1017D000DF911F910F910895CF92DF92FF920F93A7
:1017E0001F93CF93DF936B01EA01F22E132F15C0E5
:1017F0008F2D912FBE010E94D22A009749F001300F
:1018000061F4CE016F2D712F0E944E07813029F4B3
:10181000C6010E949C1C81E007C0C6016F2D712F7C
:101820000E94421F882321F7DF91CF911F910F91D2
:10183000FF90DF90CF900895CF92DF92EF92FF92CA
:101840000F93DF93CF93CDB7DEB7AB970FB6F89476
:10185000DEBF0FBECDBF7C016E010894C11CD11C40
:10186000960100E00E94EC0B882319F420E030E0A0
:1018700005C0C701B6010E9488289C01C901AB962A
:101880000FB6F894DEBF0FBECDBFCF91DF910F91A1
:10189000FF90EF90DF90CF900895EF92FF920F931B
:1018A0001F93DF93CF9300D000D0CDB7DEB78C016C
:1018B00060918E0770918F078091020490910304CC
:1018C000A8010E941C0C7C01009759F483E19AE066
:1018D0000E94702AC8010E94632A8AE00E9474292B
:1018E00019C019821A821B821C82BE016F5F7F4F52
:1018F00042E00E947226882379F480E09AE00E94F8
:10190000702AC8010E94632A8AE00E947429C701D4
:101910000E94461B80E062C18CE30E9474295D9A9C
:101920001092050410920404109207041092060409
:1019300080E090E0FC01E65FFB4F1082019623E01F
:1019400084389207B9F78091C10080688093C10004
:101950007894A6C00F5F1F4F83E10938180708F479
:101960009AC08091060490910704892B09F47BC0EA
:101970008091060490910704825C914009F473C041
:101980008091060490910704825C914098F4409104
:10199000060450910704C7016AE074E00E94CE2655
:1019A000209106043091070482179307D9F089EE3D
:1019B00099E016C04091060450910704425C5140E2
:1019C000C7016CEC75E00E94CE2620910604309190
:1019D0000704225C31408217930721F082ED99E0E1
:1019E0000E94702A8091060490910704835C9140C4
:1019F00018F460E070E002C062EC71E0F894AB01B2
:101A00001EC08091060490910704FC01E65FFB4F25
:101A10002081FA01E65FFB4F208301969093070433
:101A200080930604809106049091070484589340A3
:101A300020F010920704109206044F5F5F4F209130
:101A4000060430910704809104049091050428173E
:101A50003907B9F6509305044093040470930704C2
:101A60006093060478940E947F1708C05D9883B73E
:101A7000816083BF889583B78E7F83BF20910604E2
:101A800030910704809104049091050428173907C8
:101A900069F300E010E081E090E00E94B40602C02B
:101AA00000E010E0209106043091070480910404C6
:101AB000909105042817390709F44CCFE0910604EA
:101AC000F0910704E65FFB4F80818A3139F4F89486
:101AD0008091C1008F778093C10038C08091060447
:101AE00090910704019690930704809306048091D7
:101AF000060490910704825C914069F4C7016AE092
:101B000074E042EC51E00E94CE26825C914019F0D4
:101B10008BEB99E019C080910604909107048458DA
:101B2000934009F0BDCF1092070410920604C7013C
:101B30006CEC75E042EC51E00E94CE26825C914054
:101B400009F4AECF84EA99E00E94702A80910604DD
:101B500090910704892BC9F18091060490910704A4
:101B6000825C914091F18091060490910704825C1F
:101B7000914098F44091060450910704C7016AE02F
:101B800074E00E94CE26209106043091070482174B
:101B90009307D9F08DE899E016C040910604509162
:101BA0000704425C5140C7016CEC75E00E94CE26F0
:101BB0002091060430910704225C3140821793077C
:101BC00021F086E799E00E94702AC7010E94461B17
:101BD0005D9884E799E00E94702A81E00F900F9051
:101BE0000F900F90CF91DF911F910F91FF90EF9089
:101BF00008952F923F924F925F926F927F928F92B1
:101C00009F92AF92BF92CF92DF92EF92FF920F938B
:101C10001F93DF93CF93CDB7DEB7C956D0400FB631
:101C2000F894DEBF0FBECDBF8EE0682E712C6C0E17
:101C30007D1E02E6202E312C2C0E3D1E16E0412E7C
:101C4000512C4C0E5D1E8EE30E947429C30168E185
:101C50000E9493088823B9F380E00E9468088C01F1
:101C600066EA7BE00E94A02A892BA9F48CE89BE01D
:101C70000E94702A80910204909103040E94BB1973
:101C800080910804909109040E9441140E948F0BD6
:101C900083E79BE035C4C80161E77BE00E94A02A8E
:101CA000892B39F0C8016CE67BE00E94A02A892BC1
:101CB00019F40E948B07C7CFC80167E67BE00E943A
:101CC000A02A892B19F40E94300ABDCFC80160E612
:101CD0007BE00E94A02A892B19F40E94A409B3CFAB
:101CE000C8016CE57BE00E94A02A892B19F40E94B0
:101CF000E208A9CFC80169E57BE042E050E00E941C
:101D0000A92A892BE9F582E0B3010E94DC07882328
:101D100009F099CF81E00E9468087C01009709F4DE
:101D200092CF60918E0770918F07BFE3CB2ED12C9D
:101D3000CC0EDD1E8091020490910304A701960150
:101D400000E00E94EC0B8823A9F08091020490919E
:101D50000304B6010E944B288C01009759F0809132
:101D60008E0790918F070E94961C10938F07009307
:101D70008E0769CF83E49BE00E94702AC701C8C325
:101D8000C80160E47BE00E94A02A892B09F048C0CA
:101D900081E00E9468086C01AFE3EA2EF12CEC0EA2
:101DA000FD1EF4E2BF2E32C0C114D10431F0C601D1
:101DB000B7010E944E07882349F1D7010D900020FA
:101DC000E9F78D01015010400E191F09C7010E944B
:101DD000632AA0968FADA09784FD02C080E201C067
:101DE0008FE21B2D101B0E94742904C080E20E9408
:101DF000742911501123D1F7F10160817181828121
:101E000093810E94FA298AE00E94742980918E07AA
:101E100090918F07B7010E94421F882329F613CFA4
:101E2000C8016CE37BE043E050E00E94A92A892BC3
:101E300009F04DC082E0B3010E94DC07882309F05D
:101E400002CF81E00E9468088C01009709F4FBCE64
:101E500060918E0770918F07809102049091030426
:101E6000A8010E941C0C5C01009721F0CC24DD2409
:101E7000760122C08DE29BE048C3C701B6010E94F3
:101E8000A9298AE30E947429820180E20E947429B0
:101E9000D8018D918D010E948329802F8419891585
:101EA000A0F38AE00E94742988E090E0A0E0B0E00E
:101EB000C80ED91EEA1EFB1EC501B20148E050E063
:101EC0000E944C1B982E8823C1F6C5017DC0C80115
:101ED00068E27BE044E050E00E94A92A892B09F0E7
:101EE000E2C081E00E9468088C01009709F4ABCE43
:101EF00060918E0770918F07809102049091030486
:101F0000A8010E941C0C4C01009719F489E19BE088
:101F1000FCC282E00E946808AC01009709F457C037
:101F2000FC0101900020E9F73197E81B20E030E048
:101F30006E2F70E00BC0FA01E20FF31F808190E07A
:101F4000C0970A9708F043C02F5F3F4F2617370707
:101F500094F38A0120E030E040E050E017C0CA016D
:101F6000B9012AE030E040E050E00E94AB2D9B0137
:101F7000AC018F2D90E0C097AA2797FDA095BA2FAE
:101F8000280F391F4A1F5B1F0F5F1F4FD801FC909E
:101F90008F2D80538A3018F32A833B834C835D83D3
:101FA000C401BE016E5F7F4F40E00E94722688230D
:101FB00071F487E09BE00E94702AC3010E94632AAB
:101FC0008AE00E947429C4010E94461B3CCE83E033
:101FD0000E946808AC010097E1F1FC01019000202B
:101FE000E9F73197E81B20E030E06E2F70E00AC07F
:101FF000FA01E20FF31F808190E0C0970A9748F53D
:102000002F5F3F4F261737079CF36A01EE24FF240A
:10201000870118C0C801B7012AE030E040E050E075
:102020000E94AB2D7B018C018B2D90E0C097AA27DD
:1020300097FDA095BA2FE80EF91E0A1F1B1F0894E2
:10204000C11CD11CF601B0808B2D80538A3010F357
:1020500018C0EE24EA94FE2C870113C09981892FC1
:1020600080528F3510F4892F05C09A3011F48AE020
:1020700001C08EE20E9474290894E108F108010968
:102080001109C401BE016F5F7F4F41E050E00E9423
:102090004C1B181619060CF093CFE114F10401053E
:1020A0001105E1F68DCFC80162E07BE00E94A02A15
:1020B000892B09F0A8C000910204109103040115B6
:1020C000110509F49DC0CE0186960E948C158823C7
:1020D00009F496C08BE09CE00E94702A8EA10E94B9
:1020E00083298AE00E94742982E09CE00E94702A81
:1020F000CE0187960E94632A8AE00E94742989EFA4
:102100009BE00E94702ACE018A960E94632A8AE090
:102110000E94742980EF9BE00E94702A88A90E9487
:1021200083298AE00E94742985EE9BE00E94702A30
:1021300069A97AA98BA99CA90E94A9298AE00E9471
:1021400074298CED9BE00E94702A8EA990E00E9479
:10215000BC298FE20E9474298DA990E00E94BC29BD
:102160008AE00E94742983ED9BE00E94702A6FA987
:1021700078AD89AD9AADE4E19695879577956795A9
:10218000EA95D1F70E94FA298FEC9BE00E94702A11
:1021900086EC9BE00E94702A8BAD90E00E94BC29E7
:1021A0008AE00E9474298DEB9BE00E94702A8DAD1D
:1021B00090E00E94BC298FE20E9474298CAD90E0CF
:1021C0000E94BC298AE00E94742984EB9BE00E9453
:1021D000702A8EAD90E00E94BC298AE00E9474298A
:1021E0008BEA9BE00E94702AC8010E941E1E0E947A
:1021F000FA298FE20E947429C8010E94FF1D2FC096
:1022000089EE9AE07DC1C80164EE7AE044E050E0D6
:102210000E94A92A892B59F582E0B3010E94DC07AC
:10222000882309F010CD81E00E946808AC01009776
:1022300009F409CD60918E0770918F078091020497
:10224000909103049E01215C3F4F00E00E94EC0B43
:10225000882341F0D1016D917D918D919C910E94D7
:10226000FA2958C182E091E00E94632AECCCC801AF
:1022700061EE7AE042E050E00E94A92A892BB9F58C
:1022800083E0B3010E94DC07882309F0DCCC81E005
:102290000E9468087C010097A9F4D5CC80910204C3
:1022A00090910304B6010E947D1D882381F48BEC7C
:1022B0009AE00E94702AC3010E94632A8AE00E9469
:1022C000742905C05FE3C52ED12CCC0EDD1E6091B4
:1022D0008E0770918F078091020490910304A701EB
:1022E000960101E00E94EC0B8823C1F6ACCCC8013A
:1022F00067EC7AE043E050E00E94A92A892B01F5BF
:1023000082E0B3010E94DC07882309F09CCC81E0C5
:102310000E946808BC01009709F495CC80918E0753
:1023200090918F07AE01415C5F4F0E94ED2488239E
:1023300009F089CC81EB9AE00E94702AC301E8C0C1
:10234000C8016BEA7AE045E050E00E94A92A892B97
:1023500009F08FC081E00E9468085C01009709F4D1
:1023600072CC82E00E9468088C010097C9F0FC01E1
:1023700001900020E9F73197E81B20E030E04E2F74
:1023800050E00BC0F801E20FF31F808190E0C0978E
:102390000A9708F058CC2F5F3F4F2417350794F366
:1023A00060918E0770918F078091020490910304D1
:1023B000A5010E941C0C7C01009729F020E030E070
:1023C00040E050E01DC08CE99AE00E94702AC501EF
:1023D0009FC0CA01B9012AE030E040E050E00E940D
:1023E000AB2D9B01AC018D2D90E0C097AA2797FDE6
:1023F000A095BA2F280F391F4A1F5B1F0F5F1F4F71
:10240000F801D0808D2D80538A3018F32A833B83C6
:102410004C835D83C701BE016E5F7F4F40E00E9429
:102420007226882359F48AE89AE00E94702AC5012E
:102430000E94632A8AE00E94742919C08CE30E94DA
:102440007429C30168E10E949308182F882379F04A
:10245000C701B301412F50E00E94CE26212F30E06A
:102460008217930759F383E79AE00E94702AC70105
:10247000ABCDC8016CE67AE046E050E00E94A92AA4
:10248000892B81F482E0B3010E94DC07882309F0E4
:10249000DACB81E00E946808009709F4D4CB0E944F
:1024A0004D0CD1CBC80169E67AE042E050E00E94D1
:1024B000A92A892BB9F481E00E9468088C01009751
:1024C00009F4C1CB80918E0790918F07B801AE01BE
:1024D000415C5F4F0E942E24882309F0B4CB8EE428
:1024E0009AE013C0C80169E47AE00E94A02A892B0F
:1024F00051F40E947F17882309F0A5CB85E39AE069
:102500000E94702AA0CB83E29AE00E94702AC80140
:102510000E94632A8AE00E94742995CB5F926F9291
:102520007F928F929F92AF92BF92CF92DF92EF9263
:10253000FF920F931F93DF93CF93CDB7DEB7AB9787
:102540000FB6F894DEBF0FBECDBF82E090E0F999E0
:10255000FECF592E92BD682E81BDF89A30B583E02A
:1025600090E0F999FECF792E92BD882E81BDF89A20
:1025700020B53F3F99F42F3F89F4F999FECF52BC23
:1025800061BC10BCFA9AF99AF999FECF72BC81BC71
:1025900010BCFA9AF99ACC24DD240EC0922F80E068
:1025A000C32EDD24C82AD92A8EEFC8168FEFD8068D
:1025B00019F488E29CE04CC000D000D000D0EDB708
:1025C000FEB7319600E917E0ADB7BEB712961C937F
:1025D0000E93119796E0E92E91E0F92EF382E282B4
:1025E000D582C4820E940A2B8DB79EB706960FB67D
:1025F000F8949EBF0FBE8DBF902E012F5E010894F0
:10260000A11CB11C1E2DEF2C26C0690100D000D0EA
:1026100000D0EDB7FEB73196ADB7BEB711969C921C
:10262000119712960C931283E382358324830E94C0
:102630000A2B8DB79EB706960FB6F8949EBF0FBEB5
:102640008DBF9EEFC9169FEFD90628F086E19CE06A
:102650000E94702A29C080918E0790918F0760E9AF
:1026600077E0A5010E94ED2496012F5F3F4F88235C
:1026700061F2932FF999FECF52BC61BC20BDFA9A4A
:10268000F99AF999FECF72BC81BCF89A80B5891786
:1026900039F0F999FECF72BC81BC90BDFA9AF99AD3
:1026A00080E997E00E944D0CAB960FB6F894DEBF20
:1026B0000FBECDBFCF91DF911F910F91FF90EF9093
:1026C000DF90CF90BF90AF909F908F907F906F9052
:1026D0005F900895EF92FF920F931F93DF93CF9334
:1026E000CDB7DEB7E8970FB6F894DEBF0FBECDBF0B
:1026F0008E010F5F1F4FC80162E171E00E94DB2A6B
:1027000060918E0770918F0780910204909103046D
:10271000A8010E941C0C7C010097A9F481E59CE0B3
:102720000E94702A80918E0790918F07B801AE01A8
:10273000425F5F4F0E94ED24882329F48AE39CE0E6
:102740000E94702A07C0C7010E94461BCE01019655
:102750000E944D0CE8960FB6F894DEBF0FBECDBFB9
:10276000CF91DF911F910F91FF90EF9008951F93EC
:1027700082E085BD80916400896C8093640083B79A
:10278000817F83BF83B7816083BF559A259A0E945A
:10279000E006892BB1F0F999FECF12BC81E081BD32
:1027A00080BDFA9AF99A5D9A2D9A10E284EF91E031
:1027B0000E94B4068BB181278BB985B1812785B979
:1027C000F5CF80E090E0F999FECF492F92BD282FF8
:1027D00081BDF89A30B5363048F0F999FECF42BD48
:1027E00021BD82E080BDFA9AF99A32E084E090E05F
:1027F000F999FECF592F92BD482F81BDF89A20B587
:102800002F3F49F4F999FECF52BD41BD81E080BD13
:10281000FA9AF99A21E0832F68E04DE151E00E9495
:102820004F2984E69CE00E94702A0E948F0B82E66A
:102830009CE00E94702A1F9108950E94B71381E0C6
:1028400090E0F999FECF392F92BD282F81BDF89ADB
:1028500080B5863040F0F999FECF32BD21BD10BC65
:10286000FA9AF99A02C0882319F40E948E1204C0C1
:10287000813011F40E946A130E94F90D80E090E00B
:102880000895FC01009711F480E00895108681E01E
:1028900008958F929F92AF92BF92CF92DF92EF9264
:1028A000FF920F93DF93CF93CDB7DEB760970FB64C
:1028B000F894DEBF0FBECDBF7C016B015A01490108
:1028C000009709F493C06115710509F48FC00430B5
:1028D0000CF08CC007FD1DC0602F772767FD709539
:1028E000E4E0660F771FEA95E1F762547E4F882790
:1028F00077FD8095982FAE014F5F5F4F20E130E06C
:10290000F7010995882309F471C08D81882309F4A2
:102910006DC080914401882309F068C07CC08D811E
:10292000809344012A8530E040E050E0542F432F4B
:10293000322F22278B8590E0A0E0B0E0DC019927C0
:102940008827282B392B4A2B5B2B898590E0A0E028
:10295000B0E0282B392B4A2B5B2B8C8590E0A0E034
:10296000B0E0B82FAA2799278827282B392B4A2B84
:102970005B2B2093450130934601409347015093D0
:1029800048012E8530E040E050E0542F432F322F95
:1029900022278F8590E0A0E0B0E0DC01992788270E
:1029A000282B392B4A2B5B2B8D8590E0A0E0B0E0E3
:1029B000282B392B4A2B5B2B888990E0A0E0B0E0D4
:1029C000B82FAA2799278827282B392B4A2B5B2B2E
:1029D0002093490130934A0140934B0150934C019D
:1029E00003C08FEF809344019F0102C020E030E0DC
:1029F000C90160960FB6F894DEBF0FBECDBFCF9170
:102A0000DF910F91FF90EF90DF90CF90BF90AF904C
:102A10009F908F900895ECE3F1E081E1DF011D923A
:102A20008A95E9F7F0923D01E0923C01D0923F0196
:102A3000C0923E01B0924101A092400190924301A8
:102A40008092420107FF6BCFCCCF81E0089580E0F8
:102A50000895282F8FEF8EBD0DB407FEFDCF8DB5E5
:102A60008F778DBD8EB5822F80648EBD0DB407FE2D
:102A7000FDCF8DB58F778DBD872F9927AA27BB27CF
:102A80008EBD0DB407FEFDCF8DB58F778DBDCB010B
:102A9000AA27BB278EBD0DB407FEFDCF8DB58F775E
:102AA0008DBDBB27A72F962F852F8EBD0DB407FE9A
:102AB000FDCF8DB58F778DBD4EBD0DB407FEFDCF1B
:102AC0008DB58F778DBD222319F0283069F406C0AB
:102AD00085E98EBD0DB407FEFDCF0BC087E88EBD26
:102AE0000DB407FEFDCF05C08FEF8EBD0DB407FE00
:102AF000FDCF8DB58F778DBD90E02FEF2EBD0DB43E
:102B000007FEFDCF8DB58F778DBD8EB58F3F19F444
:102B10009F5F9A3099F70895CF92DF92EF92FF92DC
:102B20000F931F93CF93DF93EC01009781F089E11E
:102B3000FE0111928A95E9F72A988AE040E050E078
:102B400060E070E00E942915882319F02A9A80E03D
:102B5000F7C09FEF9EBD0DB407FEFDCF8DB58F77FB
:102B60008DBD8EB58E3FB1F71C2FCE01FC0160E606
:102B700070E00FEF9E2F911B0EBD0DB407FEFDCF31
:102B80008DB58F778DBD2EB5983028F4933088F4AD
:102B9000992359F00CC09D3018F4993070F40BC093
:102BA0009D3019F19E3069F524C028832AC0208306
:102BB00028C0218326C02A8724C030E040E050E0AE
:102BC000062E04C0220F331F441F551F0A94D2F74C
:102BD0008B859C85AD85BE85822B932BA42BB52B35
:102BE0008B879C87AD87BE870CC02295207F2F875F
:102BF00008C0922F92959F708F85892B8F872F7099
:102C0000288B3196685070408FEF603D780709F04F
:102C1000B1CF89E040E050E060E070E00E9429150B
:102C2000882309F093CF9FEF9EBD0DB407FEFDCF23
:102C30008DB58F778DBD8EB58E3FB1F7F0E070E02A
:102C400020E030E040E050E060E01FEFE1E01EBD3A
:102C50000DB407FEFDCF8DB58F778DBD8EB56E306F
:102C600079F490E086FDED8B85FDEE8B84FDEF8B96
:102C70008C7090709595879595958795888F5AC09B
:102C80006730F9F0683030F4653061F0663009F093
:102C900051C00BC06930A1F1693010F16A3009F000
:102CA00049C032C0F82FFF7045C090E0A0E0B0E00E
:102CB00083709070A070B0702227382F492F5A2F40
:102CC00039C090E0A0E0B0E0282B392B4A2B5B2BD9
:102CD000A2E0220F331F441F551FAA95D1F72AC027
:102CE000829586958695837090E0A0E0B0E0282BD1
:102CF000392B4A2B5B2B2F5F3F4F4F4F5F4F1AC033
:102D0000782F7370770F16C0881F8827881F782B3D
:102D10008F2F90E00296870F911D69017A0104C000
:102D2000CC0CDD1CEE1CFF1C8A95D2F7C98ADA8A0E
:102D3000EB8AFC8A6F5F623109F089CF2A9A81E0C1
:102D4000DF91CF911F910F91FF90EF90DF90CF9087
:102D500008952F923F924F925F926F927F928F923F
:102D60009F92AF92BF92CF92DF92EF92FF920F931A
:102D70001F93CF93DF934B015C012A013901332468
:102D80003A9422242394A1C0E401D170CE01A0E0A2
:102D9000B0E085017401E81AF90A0A0B1B0BC12C7B
:102DA000B2E0DB2ECC1ADD0A6C147D0408F463015A
:102DB00080914D0390914E03A0914F03B091500329
:102DC000E816F9060A071B07F9F00E947F17882307
:102DD00009F481C0209729F480E0C81682E0D80663
:102DE00058F4C801B7014DE451E020E032E00E9400
:102DF0009917882309F46FC0E0924D03F0924E03B7
:102E000000934F03109350038DE4481681E0580659
:102E100071F09E01235B3E4FC901B201A6010E94E1
:102E2000B72A109251036C147D0409F452C02A98F9
:102E300088E1B801A7010E942915882311F02A9A78
:102E40004AC08EEF8EBD0DB407FEFDCF8DB58F77D6
:102E50008DBDEDE4F1E081918EBD0DB407FEFDCF97
:102E60008DB58F778DBD83E0ED34F807A1F73EBCBB
:102E70000DB407FEFDCF8DB58F778DBD3EBC0DB473
:102E800007FEFDCF8DB58F778DBD3EBC0DB407FE1F
:102E9000FDCF8DB58F778DBD8EB58F3FB1F78EBDD0
:102EA0000DB407FEFDCF8DB58F778DBD8EB52A9AF7
:102EB0004C0C5D1CC601A0E0B0E0880E991EAA1E55
:102EC000BB1E6C187D08209251036114710409F037
:102ED0005BCF81E001C080E0DF91CF911F910F9126
:102EE000FF90EF90DF90CF90BF90AF909F908F902A
:102EF0007F906F905F904F903F902F9008958091BA
:102F00005103882311F081E0089560914D03709181
:102F10004E0380914F03909150034DE451E020E027
:102F200032E00E94A916882319F081E080935103B2
:102F300008953F924F925F926F927F928F929F92ED
:102F4000AF92BF92CF92DF92EF92FF920F931F93B7
:102F5000CF93DF933B014C016A01290133243A945A
:102F60008FC01FEFA12E11E0B12EA620B720C50102
:102F7000A0E0B0E084017301E81AF90A0A0B1B0B08
:102F8000C0E0D2E0CA19DB094C165D0608F4E20184
:102F900080914D0390914E03A0914F03B091500347
:102FA000E816F9060A071B0709F457C00E947F17A5
:102FB000882309F46AC02A9881E1B801A7010E9418
:102FC0002915882319F02A9A80E05FC03EBC0DB411
:102FD00007FEFDCF8DB58F778DBD8EB58E3FB1F7D6
:102FE000EDE4F1E03EBC0DB407FEFDCF8DB58F776B
:102FF0008DBD8EB5808383E0EC34F80711F03196F7
:10300000F1CFE0924D03F0924E0300934F031093E3
:1030100050039501235B3E4FC601B901AE010E94EA
:10302000B72A3EBC0DB407FEFDCF8DB58F778DBDA1
:103030008EB53EBC0DB407FEFDCF8DB58F778DBD2F
:103040008EB52A9A3EBC0DB407FEFDCFCC0EDD1E18
:103050008DB58F778DBD8EB50AC09501235B3E4F30
:10306000C601B901AE010E94B72ACC0EDD1E4C1A72
:103070005D0ACE01A0E0B0E0680E791E8A1E9B1E9C
:103080004114510409F06DCF81E0DF91CF911F9180
:103090000F91FF90EF90DF90CF90BF90AF909F90F7
:1030A0008F907F906F905F904F903F9008952F92F8
:1030B0003F924F925F926F927F928F929F92AF92C8
:1030C000BF92CF92DF92EF92FF920F931F93DF9305
:1030D000CF9300D000D0CDB7DEB74B015C013A01F1
:1030E0003C832B832701DA82C98241155105A9F15E
:1030F0002115310591F10217130778F1E114F1045C
:1031000061F119013094219431083394021B130B9F
:103110006901EE24FF24C501B401A3012B813C8188
:103120000E9499178823C9F0C301B501A401298120
:103130003A81F2010995882391F0020D131D8B81CC
:103140009C81800F911F2B813C818217930738F05F
:103150008C0C9D1CAE1CBF1CDECF80E001C081E04A
:103160000F900F900F900F90CF91DF911F910F91C3
:10317000FF90EF90DF90CF90BF90AF909F908F9097
:103180007F906F905F904F903F902F9008950F9396
:103190001F93CF93DF93239A259A229A24982A9AF1
:1031A00083E58CBD8DB58E7F8DBD1092520390E06E
:1031B0002FEF2EBD0DB407FEFDCF8DB58F778DBDE2
:1031C0008EB59F5F9A30A9F72A98C0E0D0E080E0E2
:1031D00040E050E060E070E00E942915182F813037
:1031E00039F081E0CF3FD80709F440C02196EFCFF6
:1031F00087E340E050E060E070E00E94291589E23A
:1032000040E050E060E070E00E94291582FD02C0BD
:103210001093520380915203082F10E00370107036
:10322000C0E0D0E00115110549F087E340E050E02F
:1032300060E070E00E94291589E201C081E040E071
:1032400050E060E070E00E94291580FF06C08FE723
:10325000CF3FD80759F02196E5CF80E140E052E01A
:1032600060E070E00E942915882319F02A9A80E016
:1032700022C02A9A8CB58C7F8CBD8DB581608DBDA6
:103280008FEF9FEFAFEFBFEF80934D0390934E030F
:10329000A0934F03B093500381E08093510360E00B
:1032A00070E080E090E04DE451E020E032E00E94E8
:1032B0009917811181E0DF91CF911F910F910895AE
:1032C0004F925F926F927F928F929F92AF92BF9236
:1032D000CF92DF92EF92FF920F931F93CF93DF93E2
:1032E0005B016C014A01E9013801270141155105D3
:1032F00071F10115110559F1FF242115310511F561
:10330000FF24F3941FC0C401B601A5019201F3018B
:1033100009958C010097E9F0FF2019F4C817D90727
:10332000B0F0C601B501A40198010E94A916882336
:1033300071F0C801A0E0B0E0A80EB91ECA1EDB1EE5
:10334000C01BD10BFF20F9F62097E9F602C080E000
:1033500001C081E0DF91CF911F910F91FF90EF901D
:10336000DF90CF90BF90AF909F908F907F906F90A5
:103370005F904F900895FC01009711F01182108228
:103380000895DF93CF9300D0CDB7DEB7DC0100976F
:1033900091F16230710578F180E090E0660F771F5F
:1033A000881F991FED91FC91119716962D913D91D3
:1033B0004D915C911997620F731F841F951F0190A7
:1033C000F081E02DAE014F5F5F4F22E030E00995C4
:1033D000882389F029813A812115310571F08FEF19
:1033E000273F380741F0C9014096079720F08FEF3B
:1033F000283F380710F020E030E0C9010F900F900F
:10340000CF91DF9108954F925F926F927F928F924A
:103410009F92AF92BF92CF92DF92EF92FF920F9363
:103420001F93DF93CF9300D0CDB7DEB75C01009739
:1034300009F449C06230710508F445C0DC011696F4
:103440006D907D908D909C9019972E010894411C51
:10345000511C660F771F7B0100E010E0E60CF71CA3
:10346000081D191DD501ED91FC910190F081E02D11
:10347000C801B701A20122E030E00995882319F1C3
:10348000C980DA80C114D10401F1C60140960897C1
:10349000D0F0B8EFCB16BFEFDB0610F0CC24DD2464
:1034A0001A821982D501ED91FC910480F581E02DFD
:1034B000C801B701A20122E030E00995B601C114AC
:1034C000D10439F602C080E001C081E00F900F9076
:1034D000CF91DF911F910F91FF90EF90DF90CF90F0
:1034E000BF90AF909F908F907F906F905F904F9024
:1034F00008952F923F924F925F926F927F928F9298
:103500009F92AF92BF92CF92DF92EF92FF920F9372
:103510001F93DF93CF93CDB7DEB72A970FB6F894FA
:10352000DEBF0FBECDBF3C012B01009709F48FC059
:10353000DC01ED91FC911197208131813A87298737
:103540002480358016968D919D910D90BC91A02D73
:103550008D839E83AF83B887F30182859385A4858D
:10356000B585B695A795979587959C838B834A01DA
:10357000CC24DD2462E0A62EB12C41C0C501880F09
:10358000991F7C0100E010E02D813E814F8158851C
:10359000E20EF31E041F151FC801B701AE014F5FF5
:1035A0005F4F22E030E0A985BA85FD0109958823A7
:1035B00009F44DC089819A81892BF1F4C114D10499
:1035C00029F4EFEFFFEFFA83E98302C0DA82C982C0
:1035D000C801B701AE014F5F5F4F22E030E0F1015B
:1035E0000995882391F00894810891088114910429
:1035F00011F465010CC065010894A11CB11C2B815C
:103600003C81A216B30608F4B9CF8928E1F432E070
:1036100043165104F0F0DA82C982440C551CB20101
:1036200080E090E02D813E814F815885620F731FAD
:10363000841F951FAE014F5F5F4F22E030E0F10124
:103640000995882331F4C301B6010E94031ACC24E2
:10365000DD24C6012A960FB6F894DEBF0FBECDBF9B
:10366000CF91DF911F910F91FF90EF90DF90CF905E
:10367000BF90AF909F908F907F906F905F904F9092
:103680003F902F90089580E190E00895FC0100970D
:1036900011F01182108208952F923F924F925F9203
:1036A0006F927F928F929F92AF92BF92CF92DF9252
:1036B000EF92FF920F931F93DF93CF93CDB7DEB7B7
:1036C0002A970FB6F894DEBF0FBECDBF2C017A83C8
:1036D00069835C834B83009709F409C1672B09F464
:1036E00006C1452B09F403C1DC019D96AD90BD9048
:1036F000CD90DC90D09795962D913D914D915C9118
:103700009897EB81FC81CF01A0E0B0E08A0D9B1D72
:10371000AC1DBD1D281739074A075B0740F4B901E6
:103720006A197B097C836B83672B09F4E3C0D201A0
:10373000ED91FC91119720883188D196ED91FC9103
:10374000D297FA87E987EF2BF1F593962D913C916B
:1037500094973A872987232B39F4A114B104C10423
:10376000D10409F4C7C0C3C0A114B104C104D10479
:1037700051F1860175013101882499246627772744
:10378000CB0166197709880999096D837E838F8338
:10379000988714C0D2018D919C9169857A850E9489
:1037A000C1199A878987892B09F4A1C06D817E810F
:1037B0008F819885E60EF71E081F191FE614F7047F
:1037C0000805190538F7089421083108A220B3200C
:1037D0000894211C311CCB80DC80D201ED90FC9040
:1037E000E114F10409F1E985FA85E230F105E0F030
:1037F0003297BF0180E090E03296FA87E987D701DF
:1038000050962D913C91519740E050E00E94AB2D95
:103810009B01AC01F70182899389A489B589280F9E
:10382000391F4A1F5B1F04C020E030E040E050E039
:1038300081010A191B09C016D10608F48601D701B7
:10384000ED91FC91C501A0E0B0E0280F391F4A1F9F
:103850005B1F0190F081E02DCA01B90149815A81B5
:1038600098010995882341F1C01AD10AC801A0E046
:10387000B0E0F20125A536A547A550A9280F391FAC
:103880004A1F5B1FD2019D962D933D934D935C93F0
:10389000D097C8018A0D9B1D82159305A0F08D91CC
:1038A0009C9169857A850E94C1199A878987892B9D
:1038B00041F4F20112AA11AA4B815C814C195D09F5
:1038C0001BC0AA24BB24E985FA85D201D296FC93B9
:1038D000EE93D197C114D10439F029813A81200F98
:1038E000311F3A83298379CF4B815C8105C04FEF2B
:1038F0005FEF02C040E050E0CA012A960FB6F8948C
:10390000DEBF0FBECDBFCF91DF911F910F91FF9012
:10391000EF90DF90CF90BF90AF909F908F907F906F
:103920006F905F904F903F902F900895FC0100970B
:1039300011F0118210820895FC01009711F480E0CB
:10394000089583A194A196A785A710AA17A681E040
:103950000895CF92DF92EF92FF920F931F93CF9330
:10396000DF938C016A017B01A901D901CD91DC9122
:10397000119712968D919C911397809613969C9314
:103980008E931297F8018081853E09F4AAC088239E
:1039900009F4A7C08FA198A5A9A5BAA50097A1056C
:1039A000B10521F4CFA2D8A6E9A6FAA6209709F47A
:1039B0009AC00115110509F496C0D8019C9199236C
:1039C00009F491C01B968C918F3029F5892F90E0D6
:1039D0008F7390702DE030E0829FA001839F500D87
:1039E000929F500D11244D505040A2E2B1E0C40FFF
:1039F000D51F0DC08D91F801E80FF11D80818993CD
:103A00004F5F5F4FE1E0AF32BE0709F46AC04F314C
:103A1000510580F366C08881882309F04EC0B80143
:103A2000DE01780120E0F70190819032A1F09C93B3
:103A3000F801848583FF08C0F7018081813420F07C
:103A40008B3510F4905E9C932F5F0894E11CF11C61
:103A50001196283041F78881853011F485EE8883EE
:103A6000D80118968C91803221F1FE01E20FF11DF0
:103A70008EE28083322F3F5F2C5FFB019085903276
:103A8000B9F0FE01E30FF11D9083D8011C968C91D3
:103A900084FF09C0DB0118968C91813420F08B35AE
:103AA00010F4905E90833F5F6F5F7F4F321729F76E
:103AB000232FFE01E20FF11D1082F801838588A3F8
:103AC000828D938D9AA389A3848D958DA68DB78DB4
:103AD0008BA39CA3ADA3BEA381E0DA0114968C93C3
:103AE00002C081E001C080E0DF91CF911F910F9172
:103AF000FF90EF90DF90CF9008957F928F929F92EA
:103B0000AF92BF92CF92DF92EF92FF920F931F93EB
:103B1000DF93CF93CDB7DEB72C970FB6F894DEBF07
:103B20000FBECDBF6C015B01009709F453C0611556
:103B3000710509F44FC0DB019796ED90FD900D9152
:103B40001C919A97E114F1040105110509F442C092
:103B50004E010894811C911CE5EE7E2ED601ED915C
:103B6000FC910190F081E02DC801B701A4012CE087
:103B700030E00995882371F17982D601ED91FC91AD
:103B80000480F581E02DC801B701A4012CE030E0EC
:103B900009958823F9F08C858F3049F480E290E014
:103BA000A0E0B0E0E80EF91E0A1F1B1FD7CFD50119
:103BB00091966D917C9192976115710539F0C601CE
:103BC0000E94031A20E030E0882311F021E030E069
:103BD000822F01C080E02C960FB6F894DEBF0FBE96
:103BE000CDBFCF91DF911F910F91FF90EF90DF90AC
:103BF000CF90BF90AF909F908F907F900895FC01E1
:103C0000009729F420E030E040E050E014C06285E5
:103C10007385848595859695879577956795625088
:103C20007040804090402089318940E050E00E94FF
:103C3000AB2D9B01AC01B901CA0108952F923F92AF
:103C40004F925F926F927F928F929F92AF92BF92AC
:103C5000CF92DF92EF92FF920F931F93DF93CF9358
:103C6000CDB7DEB7A6970FB6F894DEBF0FBECDBFB7
:103C70009EA38DA3892B09F45DC01A82198280E26C
:103C800090E09C838B83ADA1BEA116964D905D9074
:103C90006D907C9019971A968D909D90AD90BC90E8
:103CA0001D9734C0BEEF8B16BFEF9B06B0E0AB068E
:103CB000B0E0BB0628F01EEF212E1FEF312E01C011
:103CC0001401ADA1BEA1ED91FC910280F381E02D24
:103CD000C301B201AE014B5F5F4F20E230E08101D2
:103CE000B9EBEB2EBEE1FB2E6E010894C11CD11C7A
:103CF00009958823F9F0C101A0E0B0E0480E591EF3
:103D00006A1E7B1E881A990AAA0ABB0A81149104AA
:103D1000A104B10439F6EDA1FEA16089718980E0AA
:103D200090E029813A8140E050E00E94AB2D9B0158
:103D3000AC0104C020E030E040E050E0B901CA012D
:103D4000A6960FB6F894DEBF0FBECDBFCF91DF9120
:103D50001F910F91FF90EF90DF90CF90BF90AF90A9
:103D60009F908F907F906F905F904F903F902F909B
:103D70000895DC01F9014281538120E030E00DC05B
:103D80008D919C911197892B29F4808191810196C5
:103D9000918380832E5F3F4F12962417350780F35F
:103DA00081E008958AE1E3E5F3E0DF011D928A9561
:103DB000E9F783E3EDE6F3E0DF011D928A95E9F789
:103DC00082E6E0EAF3E0DF011D928A95E9F70895C3
:103DD000CF92DF92EF92FF920F931F93DF93CF93D7
:103DE000CDB7DEB760970FB6F894DEBF0FBECDBF7C
:103DF0008C016230710510F480E035C0009729F421
:103E000040E050E060E070E016C06250704080E03A
:103E100090E0F8012089318940E050E00E94AB2D0C
:103E2000AB01BC01F80182899389A489B589480F47
:103E3000591F6A1F7B1FDE01119680E1FD0111925F
:103E40008A95E9F7F8018081918120893189FC0107
:103E5000C680D780CB01BA01AD0103E41BE1EE249B
:103E6000FF24F601099560960FB6F894DEBF0FBEE9
:103E7000CDBFCF91DF911F910F91FF90EF90DF9019
:103E8000CF9008952F923F924F925F926F927F92C0
:103E90008F929F92AF92BF92CF92DF92EF92FF925A
:103EA0000F931F93DF93CF93CDB7DEB7A7970FB6CE
:103EB000F894DEBF0FBECDBF2C017FA36EA3009789
:103EC00009F4B1C06115710509F4ADC0DC018D9034
:103ED0009C901197F401208831889D96AD90BC90FC
:103EE0009E979F966D907C90D0978BE2DB011D9200
:103EF0008A95E9F7FE01319685E0DF011D928A95EA
:103F0000E9F7A114B10409F076C0F40122883388DE
:103F100086899789281A390A6EC0730100E010E07B
:103F2000A114B10441F4D40156966D917D918D9107
:103F30009C9159972DC08114910421F1B2E0AB16E8
:103F4000B10400F1EEEFFFEFAE0EBF1EB50180E051
:103F500090E022E030E0A20EB31ED40150962D91E5
:103F60003C91519740E050E00E94AB2D9B01AC0189
:103F7000F40182899389A489B589280F391F4A1FC2
:103F80005B1F04C020E030E040E050E0CA01B9010E
:103F90006E0D7F1D801F911F1C821B82D401ED912D
:103FA000FC918101061917090280F381E02DAE0111
:103FB0004A5F5F4F20E230E0A9EAEA2EACE1FA2E38
:103FC0006E010894C11CD11C0995882361F18B8175
:103FD0009C81680E791E6214730488F0C401B501D7
:103FE0000E94C1195C0166247724009741F4F20114
:103FF000A3A0B4A008C02EA13FA13A8329838D813C
:10400000882309F48ACFD2019E96BC92AE929D97E6
:10401000D0967C926E929F97EEA1FFA1808188231B
:1040200019F081E001C080E0A7960FB6F894DEBFDA
:104030000FBECDBFCF91DF911F910F91FF90EF90F9
:10404000DF90CF90BF90AF909F908F907F906F90B8
:104050005F904F903F902F9008952F923F924F92F4
:104060005F926F927F928F929F92AF92BF92CF9208
:10407000DF92EF92FF920F931F93DF93CF93CDB711
:10408000DEB7A8970FB6F894DEBF0FBECDBF98A7D6
:104090008FA3009709F45CC1DC0114968D919C916B
:1040A0001597892B09F454C116968D919C911797F9
:1040B000892B09F44DC168C1E3E5F3E08AE1DF0132
:1040C0001D928A95E9F7EFA1F8A5F0935403E093C8
:1040D0005303218432844384548459E0220C331CDA
:1040E000441C551C5A95D1F7C201B101655F7F4F41
:1040F0008F4F9F4F0190F081E02DAE014F5F5F4FDA
:1041000029E130E00995882309F445C1E981FA8164
:10411000FBA3EAA32C813D81FB81FCA34E818F810F
:1041200098859EA38DA3E985FA856C857D856E882B
:104130007F88888C998C611471048104910431F416
:10414000309709F428C13F0188249924611571052D
:1041500009F421C1C901A0E0B0E08E8F9F8FA8A310
:10416000B9A380E090E0242F30E040E050E00E94CE
:10417000AB2D6A8F7B8F8C8F9D8F840173012E8D69
:104180003F8D48A159A1E21AF30A040B150BE61A58
:10419000F70A080B190B8AA19BA101972DA13EA13B
:1041A00045E0220F331F4A95E1F7820F931F6AA162
:1041B0007BA10E94CA2D80E090E0E61AF70A080B66
:1041C000190B8CA1282F30E040E050E0C801B70166
:1041D0000E94F12D79018A0195EFE9169FE0F90619
:1041E00090E0090790E0190708F4D5C0A5EFEA169A
:1041F000AFEFFA06A0E00A07A0E01A0728F486E06D
:10420000EFA1F8A5808705C08BE0AFA1B8A51896EF
:104210008C9388E1E5E5F3E0DF011D928A95E9F7EB
:10422000EAA1FBA15F01CC24DD24C401B301A601F6
:1042300095010E94AB2D60935503709356038093B4
:10424000570390935803C601B5012E8D3F8D48A1A9
:1042500059A10E94AB2D260E371E481E591E2092D2
:10426000590330925A0340925B0350925C03AFA112
:10427000B8A518968C91863029F064E070E080E053
:1042800090E004C062E070E080E090E022E030E086
:1042900040E050E0E20EF31E041F151FA801970135
:1042A0000E94AB2D60935D0370935E0380935F0368
:1042B000909360034AA15BA1509362034093610312
:1042C0005CA1852F90E0DC01EAA1FBA1AE9FC001BB
:1042D000AF9F900DBE9F900D112490936403809327
:1042E00063036A8D7B8D8C8D9D8DA60195010E9447
:1042F000AB2D2091590330915A0340915B035091AB
:104300005C03620F731F841F951F60936903709392
:104310006A0380936B0390936C03ADA1BEA19D01D2
:1043200040E050E0B5E0220F331F441F551FBA95FF
:10433000D1F7620F731F841F951F609365037093FD
:104340006603809367039093680323E533E002C01C
:1043500020E030E0C901A8960FB6F894DEBF0FBE8A
:10436000CDBFCF91DF911F910F91FF90EF90DF9024
:10437000CF90BF90AF909F908F907F906F905F9005
:104380004F903F902F900895809153039091540344
:10439000892BF1F691CE1092540310925303D8CF8B
:1043A0002F923F924F925F926F927F928F929F9245
:1043B000AF92BF92CF92DF92EF92FF920F931F9333
:1043C000DF93CF9300D00F92CDB7DEB71C019B01D6
:1043D000009709F4D2C04115510509F4CEC0FA0185
:1043E00001900020E9F7E41BF50BCF010B966DE07F
:1043F00070E00E94CA2D862F8F5F8B83D901939620
:104400004D905C9094974114510451F0AA24BB2420
:104410006501EE24FF2487016624772443010BC045
:10442000F101E688F788008D118D62887388848891
:104430009588570168011A82E614F70408051905E2
:1044400009F06EC04114510409F497C0E114F1045D
:104450000105110589F1C101B2010E94C11900973E
:1044600051F5C101B20141E050E00E94791A8C017E
:10447000009709F482C002501040B80180E090E03B
:104480000E5F1F4FD10150962D913C91519740E006
:1044900050E00E94AB2D5B016C01F1018289938990
:1044A000A489B589A80EB91ECA1EDB1EC101B801B8
:1044B0000E94E81E65C02C01F2E04F16510420F462
:1044C000EE24FF2487011DC02EEF3FEF420E531E46
:1044D000B20180E090E0A2E0B0E04A0E5B1EF10184
:1044E0002089318940E050E00E94AB2D7B018C0196
:1044F000F10182899389A489B589E80EF91E0A1F02
:104500001B1FD10150968D919C9151973C0188249D
:1045100099246E0C7F1C801E911E570168011A821F
:10452000D101ED91FC910190F081E02DC801B7011E
:10453000AE014F5F5F4F21E030E009958823E9F03D
:104540008981853E11F0882379F4BA81BF5FBA83EF
:10455000EB81BE17A8F480E290E0A0E0B0E0E80EA6
:10456000F91E0A1F1B1F68CF80E290E0A0E0B0E0B8
:10457000E80EF91E0A1F1B1F5CCFAA24BB2465018D
:10458000B501C6010F900F900F90CF91DF911F9151
:104590000F91FF90EF90DF90CF90BF90AF909F90E2
:1045A0008F907F906F905F904F903F902F900895E5
:1045B0003F924F925F926F927F928F929F92AF92B3
:1045C000BF92CF92DF92EF92FF920F931F93DF93F0
:1045D000CF93CDB7DEB7A0970FB6F894DEBF0FBE6E
:1045E000CDBFFC018B01009709F41FC16115710556
:1045F00009F41BC10190F081E02D44805580DB015E
:104600009796AD90BD90CD90DC909A97E62E912E26
:10461000FB0101900020E9F73197FE2EF61A8F2D4D
:1046200090E00C966DE070E00E94DE2D762ECE01BB
:10463000019660E270E04BE050E00E94C02AC801A1
:104640006EE270E00E94FF2AFC010097E1F09C01FD
:104650002F5F3F4F81818823B1F0D9010D90002059
:10466000E9F71197A21BB30B8A2F8095F80EBE01B4
:10467000675F7F4F4A2FA43008F043E0CB01B901B8
:1046800050E00E94B72ACE010196B8E0BF1588F02D
:104690006E2D792D4F2D50E00E94B72AF8018081B0
:1046A0008E3231F581818E3209F482818823F9F0CE
:1046B0001FC0DC018E2D992D9C01F90188E001902D
:1046C0000D928150E1F7D80191968C91982F929597
:1046D0009F70803A10F4905D01C09F598F708A30AE
:1046E00010F4805D01C08F599F83888701C07724B3
:1046F0008981853E11F485E08983FCE08F2E912C21
:104700008C0E9D1E85E1F40111928A95E9F7D8017E
:1047100090968C9190978C8791968D919C91929781
:104720009C8F8B8F93968D919D910D90BC91A02D18
:104730008D8F9E8FAF8FB8A3672D70E0E5E0660F79
:10474000771FEA95E1F780E090E06A0D7B1D8C1DF4
:104750009D1DAE014F5F5F4F20E230E0F2010995F1
:10476000882309F462C0E980FE01329694018E2DFF
:104770008695E794EE24E794E82A8191E80EE21703
:10478000F307A9F7F72C4E010894811C911C7DE0DA
:10479000372E6FE0662E44C0C4016FEF70E040E238
:1047A00050E00E94C02AF39CD00111241D97A00F55
:1047B000B11F91E0F401E90FF11D8C918083892FE5
:1047C0008F5FF401E80FF11D10829E5F9B3019F09E
:1047D0009A3121F402C09EE001C09CE18C918823B3
:1047E00021F09F3110F41196E5CFF982F71419F4F6
:1047F0008F2D806489836C86EE861D861B8E1C8EB1
:10480000C601B501A40120E230E0F201099580E281
:1048100090E0A0E0B0E0A80EB91ECA1EDB1EFA941C
:10482000FF2009F0B9CF81E001C080E0A0960FB66B
:10483000F894DEBF0FBECDBFCF91DF911F910F91D6
:10484000FF90EF90DF90CF90BF90AF909F908F90B0
:104850007F906F905F904F903F9008957F928F92DE
:104860009F92AF92BF92CF92DF92EF92FF920F93FF
:104870001F93CF93DF936C015B01EA01009709F46A
:104880009DC06115710509F499C0FB0180818823E1
:1048900009F494C04115510581F490C0C501682DFB
:1048A000772D0E94D22A009751F4F60183A194A19A
:1048B00096A785A710AA17A681C0842E7D2EC601B3
:1048C000BE010E94421F882349F7F601E080F18073
:1048D000C70160E070E041E050E00E94791A8C016D
:1048E000009709F46BC0C701B8010E94E81E8BE273
:1048F000FE0111928A95E9F780E188A302501040E9
:10490000B80180E090E00E5F1F4FF70120893189E8
:1049100040E050E00E94AB2DF701228933894489A1
:104920005589260F371F481F591F2FA338A749A79E
:104930005AA7AEE29A2E98821AA309A3C701BE0114
:104940000E94D8228823B1F18FA198A5A9A5BAA564
:104950008096A11DB11D8FA398A7A9A7BAA7998278
:10496000F60183A194A19AA389A3C701BE010E9465
:10497000D8228823F9F0882D972DB5014FE150E01A
:104980000E94F02A1AA309A3C701B601AE010E9432
:10499000D0216FA378A789A79AA761157105810512
:1049A000910541F0C701BE010E94D822882311F071
:1049B00081E005C0C701B8010E94031A80E0DF91C1
:1049C000CF911F910F91FF90EF90DF90CF90BF900C
:1049D000AF909F908F907F900895AF92BF92CF92AB
:1049E000DF92EF92FF920F931F93CF93DF938C018F
:1049F0007B01EA01009709F448C06115710509F4CB
:104A000044C0FB018081882309F43FC04115510552
:104A1000E1F1B42EAD2EC801BE010E94421F8823D1
:104A200079F0C7016B2D7A2D0E94D22A009799F751
:104A3000F80183A194A196A785A710AA17A625C05F
:104A4000F801C080D1808BE2FE0111928A95E9F7CE
:104A50008B2D9A2DB7014FE150E00E94F02AC6013C
:104A6000B801AE010E94D0216FA378A789A79AA7A9
:104A7000611571058105910541F0C601BE010E94D5
:104A8000D822882319F081E001C080E0DF91CF9126
:104A90001F910F91FF90EF90DF90CF90BF90AF905C
:104AA00008954F925F926F927F928F929F92AF92F2
:104AB000BF92CF92DF92EF92FF920F931F93DF93FB
:104AC000CF93CDB7DEB72A970FB6F894DEBF0FBEEF
:104AD000CDBF2C015A016B01009709F4E5C0DC0140
:104AE00093960D911C919497ED91FC9120893189B9
:104AF0000115110599F0AB82BC82CD82DE823901AD
:104B00008824992422273327A9012619370948091F
:104B100059092F83388749875A8720C04115510585
:104B20006105710509F4A9C0E6CFD2018D919C9170
:104B3000B8010E94C1190097D9F0EB80FC800D816B
:104B40001E812F81388549855A85E20EF31E041F88
:104B5000151FEB82FC820D831E838C018B819C814F
:104B6000AD81BE81681679068A069B06F0F2B4C054
:104B700078016B817C818D819E81660D771D881DFA
:104B8000991D6150704080409040A40193010E94A3
:104B9000F12DD2018D919C91B801A9010E94791A41
:104BA000009709F481C0012B21F4F20194A383A39F
:104BB0007C01D2019596AD92BD92CD92DC929897F0
:104BC000A114B104C104D10421F494961C921E9244
:104BD0009397F20181919191BF010E94D82288237D
:104BE00009F462C0A114B104C104D10429F4F20192
:104BF00080819181B7013FC00B811C812D813E8155
:104C00006016710682069306C0F1D2010D911C91C7
:104C10000115110591F1B2E0EB16F10470F1C80134
:104C2000B7010E94C1194C018FEF9FEF9A838983CE
:104C3000D801ED91FC911197EE0CFF1CB70180E0BB
:104C400090E016962D913D914D915C911997620FD0
:104C5000731F841F951F0480F581E02DAE014F5F07
:104C60005F4F22E030E00995882339F081149104E8
:104C700021F0C801B4010E94031AF20185A596A58E
:104C8000A7A5B0A9A816B906CA06DB0658F4D20132
:104C90009D96AD92BD92CD92DC92D097D2961C9209
:104CA0001E92D19781E001C080E02A960FB6F89459
:104CB000DEBF0FBECDBFCF91DF911F910F91FF904F
:104CC000EF90DF90CF90BF90AF909F908F907F90AC
:104CD0006F905F904F90089578010115110509F4C8
:104CE00048CF67CFCF92DF92EF92FF920F931F933F
:104CF000CF93DF93EC016B01009709F445C0611578
:104D0000710509F441C08DA59EA5AFA5B8A9413094
:104D100059F0413018F04230B9F50CC0FB01E08089
:104D2000F1800281138113C0FB01E080F1800281D8
:104D3000138109C0FB01E080F180028113818DA104
:104D40009EA1AFA1B8A5E80EF91E0A1F1B1F8DA1D9
:104D50009EA1AFA1B8A58E159F05A007B10738F495
:104D6000CE01B801A7010E945125882369F0EDA664
:104D7000FEA60FA718AB1AAA19AAF601E082F182C3
:104D80000283138381E001C080E0DF91CF911F9106
:104D90000F91FF90EF90DF90CF9008952F923F9268
:104DA0004F925F926F927F928F929F92AF92BF923B
:104DB000CF92DF92EF92FF920F931F93DF93CF93E7
:104DC00000D000D000D0CDB7DEB79E838D837A832C
:104DD00069835C834B83009709F441C1672B09F415
:104DE0003EC1452B09F43BC1DC019D968D909D9001
:104DF000AD90BC90D097FC0185A196A1A7A1B0A5CC
:104E000088159905AA05BB0508F429C10190F08110
:104E1000E02D20883188AD81BE81D1960D911C9105
:104E2000D2970115110509F055C093960D911C916B
:104E3000949701151105A9F481149104A104B104FA
:104E400009F00DC1CF0160E070E041E050E00E9448
:104E5000791A8C01ED81FE8194A383A3009709F454
:104E6000FEC0AD81BE819D96CD90DD90ED90FC9011
:104E7000D097C114D104E104F10421F52BC0C4186A
:104E8000D508E608F708ED81FE8180819181B8019F
:104E90000E94C119009711F08C0117C0C114D104F0
:104EA000E104F10409F0DBC0AD81BE818D919C91DC
:104EB000B80141E050E00E94791A009709F4CFC090
:104EC0008C0103C0210166247724C414D504E604B0
:104ED000F704A8F60894210831088220932008944A
:104EE000211C311CAB80BC80ED81FE81C080D18053
:104EF000C114D104F9F002301105E0F00250104065
:104F0000B80180E090E00E5F1F4FD60150962D91C2
:104F10003C91519740E050E00E94AB2D9B01AC01C9
:104F2000F60182899389A489B589280F391F4A1F00
:104F30005B1F04C020E030E040E050E07101E81861
:104F4000F908AE14BF0408F47501D601ED91FC9187
:104F5000C401A0E0B0E0280F391F4A1F5B1F048086
:104F6000F581E02DCA01B90149815A81970109955E
:104F7000882309F448C0AE18BF08C701A0E0B0E01C
:104F8000ED81FE8125A536A547A550A9280F391F1B
:104F90004A1F5B1F25A736A747A750ABC701880D3F
:104FA000991D8215930508F180819181B8010E94B5
:104FB000C119009711F08C0116C0A114B10459F069
:104FC000ED81FE8180819181B80141E050E00E9435
:104FD000791A009739F4AD81BE81D2961C921E9247
:104FE000D19711C08C0188249924ED81FE8112ABE8
:104FF00001ABA114B10439F089819A818E0D9F1DF6
:105000009A83898371CFED81FE8185A596A5A7A599
:10501000B0A9E5A0F6A007A110A5E816F9060A07B1
:105020001B07C0F485A396A3A7A3B0A78191919174
:10503000BF010E94D822882369F4AD81BE819D966C
:10504000AD90BC909E97AE18BF08FD01E5A6F6A6F0
:1050500007A710AB4B815C814A195B0902C04FEF77
:105060005FEFCA0126960FB6F894DEBF0FBECDBF24
:10507000CF91DF911F910F91FF90EF90DF90CF9034
:10508000BF90AF909F908F907F906F905F904F9068
:105090003F902F900895CF93DF93AC01DB010097F1
:1050A00089F16115710571F190968C91909784FF4B
:1050B00029C08091A0039091A103892B19F4E0EA03
:1050C000F3E008C08091D1039091D203892BD1F4F1
:1050D000E1EDF3E09F012E5F3F4FBD018BE2EB015D
:1050E0000990BE01E90109929E018150C1F75183E7
:1050F000408391968D919C91929796A785A710AA2F
:1051000017A602C0E0E0F0E0CF01DF91CF91089553
:10511000CF93DF939C01FB01009731F0611571057E
:1051200019F080A184FF23C020E030E0C901DF91A5
:10513000CF910895CFE6D3E0DF018BE20D90099285
:105140008150E1F730936E0320936D0310929A0320
:1051500010929B0310929C0310929D0381A192A137
:1051600090939F0380939E032DE633E0DFCF8091E1
:105170006D0390916E03892BB9F6DCCF6F927F920D
:105180008F929F92AF92BF92CF92DF92EF92FF9257
:105190000F931F93CF93DF934C01EB017A0100979C
:1051A00009F467C06115710509F463C0888188231B
:1051B00009F45FC04115510509F45BC08F3209F451
:1051C00021968BE2F70111928A95E9F780E1F701C8
:1051D00080A3370101C0E5018881882309F44BC011
:1051E000C401B7010E944B286C01009709F441C02B
:1051F000CE016FE270E00E94C72A009739F0482F75
:105200004C1B5C010894A11CB11C2AC0FE0101903A
:105210000020E9F731974E2F4C1B5E01A40EB11C04
:105220001FC0F30101900020E9F73197E619F70953
:10523000E017F107B9F4CE01B301A8010E94E22AF8
:10524000009781F4F601118210820C0F1D1FF801E6
:105250008081882381F0F70180A184FDBCCF09C043
:10526000042F10E0C601B7010E94421F8823C9F62F
:1052700012C080E001C081E0DF91CF911F910F91BA
:10528000FF90EF90DF90CF90BF90AF909F908F9066
:105290007F906F900895F601118210829DCF382F74
:1052A000EAE6FCE085919491373040F4E32FF0E09A
:1052B000EE0FFF1FEA59F34F85919491382F82E04A
:1052C0008093C0003093C4009093C500223021F435
:1052D0008091C200886002C08091C2008093C200A9
:1052E00088E98093C10008951F93182F8A3019F41C
:1052F0008DE00E9474298091C00085FFFCCF10933F
:10530000C6001F9108951F93182F82958F708A30C1
:1053100010F4805D01C0895A0E947429812F90E0A9
:105320008F709070212F2F700A971CF4822F805D50
:1053300002C0822F895A0E9474291F9108951F93D9
:10534000182F892F0E948329812F0E9483291F9162
:105350000895EF92FF920F931F937B018C01C80178
:10536000AA27BB270E949F29C7010E949F291F913E
:105370000F91FF90EF900895CF92DF92FF920F93DD
:105380001F93CF93DF936C01C0E1D7E240E000E0D0
:1053900010E0C601BE010E94CA2DF62E662329F434
:1053A000442319F4C130D10529F48F2D805D0E946A
:1053B000742941E0CE016AE070E00E94CA2D0F5FBF
:1053C0001F4F0530110571F08F2D90E09C012C9F2F
:1053D000C0012D9F900D3C9F900D1124C81AD90A31
:1053E000EB01D7CFDF91CF911F910F91FF90DF900D
:1053F000CF9008954F925F926F927F928F929F927B
:10540000AF92BF92CF92DF92EF92FF920F931F93D2
:10541000CF93DF935B016C01E12C2AECF22E2AE999
:10542000022F2BE3122F4424C0E0D0E0C601B501C7
:10543000A80197010E94F12D922E222341F44420CD
:1054400031F481E0E816F1040105110531F4892DEC
:10545000805D0E94742944244394C801B7012AE066
:1054600030E040E050E00E94F12D822E732E642E39
:10547000552E2196CA30D105A9F0692D70E080E043
:1054800090E0A80197010E94AB2DA61AB70AC80A9E
:10549000D90A282D372D462D552DC901DA017C0159
:1054A0008D01C4CFDF91CF911F910F91FF90EF90AD
:1054B000DF90CF90BF90AF909F908F907F906F9034
:1054C0005F904F900895CF93DF93EC0103C0219636
:1054D0000E94742988818823D1F7DF91CF910895A4
:1054E000CF93DF93EC01FE0121968491882319F07C
:1054F0000E947429F8CFDF91CF9108958091C10067
:1055000080688093C100789483B7816083BF889559
:1055100083B78E7F83BFF894809104049091050433
:10552000892B19F480918D0707C0E0910404F09154
:105530000504E75FFB4F80818D3009F48AE0089510
:10554000FB01DC018D91059080190110D9F3990BB5
:105550000895FB01DC014150504030F08D910590E1
:10556000801919F40020B9F7881B990B0895FB01E5
:10557000DC0102C001900D9241505040D8F70895CF
:10558000DC0101C06D9341505040E0F70895FC01EB
:105590008191861721F08823D9F7992708953197AB
:1055A000CF010895FB01DC018D910190801901105C
:1055B000D9F3990B0895FB01DC0101900D920020B5
:1055C000E1F70895FB01DC014150504030F08D912E
:1055D0000190801919F40020B9F7881B990B0895E0
:1055E000FB01DC014150504048F001900D92002039
:1055F000C9F701C01D9241505040E0F70895FC01E9
:1056000081E090E00190061609F4CF010020D1F767
:1056100001970895AEE0B0E0E0E1FBE20C94212EAA
:105620000D891E8986E08C831A8309838FEF9FE79B
:105630009E838D839E01275E3F4FCE0101966F8929
:10564000788DA9010E942E2B2F813885020F131F00
:10565000F80110822E96E4E00C943D2EABE0B0E011
:10566000E4E3FBE20C94132E3C012B015A01FC01F4
:1056700017821682838181FD03C06FEF7FEFC6C161
:105680009AE0892E1E010894211C311CF30123810C
:10569000F20123FD859123FF81912F01882309F4D5
:1056A000B2C1853239F423FD859123FF81912F0109
:1056B000853229F490E0B3010E94212DE7CF982F85
:1056C000FF24EE249924FFE1FF15D0F09B3269F00E
:1056D0009C3228F4903259F0933291F40EC09D32EE
:1056E00049F0903369F441E024C052E0F52A84E0A7
:1056F000F82A28C098E0F92A25C0E0E1FE2A22C055
:10570000F7FC29C0892F80538A3070F4F6FE05C05B
:10571000989C902C1124980E15C0E89CE02C112424
:10572000E80EF0E2FF2A0EC09E3229F4F6FC6BC1AF
:1057300040E4F42A07C09C3619F450E8F52A02C068
:10574000983649F4F20123FD959123FF91912F01A1
:10575000992309F0B8CF892F8554833018F08052EF
:10576000833038F444E050E0A40EB51E5FE3598363
:105770000FC0933631F0933779F0933509F056C066
:1057800020C0F5018081898342E050E0A40EB51E5F
:10579000610101E010E012C0F501C080D180F6FC8B
:1057A00003C06FEF7FEF02C0692D70E042E050E070
:1057B000A40EB51EC6010E94162D8C015FE7F522CE
:1057C00014C0F501C080D180F6FC03C06FEF7FEFFD
:1057D00002C0692D70E042E050E0A40EB51EC60183
:1057E0000E940B2D8C0150E8F52AF3FE07C01AC069
:1057F00080E290E0B3010E94212DEA948E2D90E08A
:1058000008171907A8F30EC0F601F7FC8591F7FEFB
:1058100081916F0190E0B3010E94212DE110EA9483
:10582000015010400115110579F7EAC0943611F0C6
:10583000993669F5F7FE08C0F50120813181428172
:10584000538184E090E00AC0F501808191819C0140
:10585000442737FD4095542F82E090E0A80EB91EF2
:105860009FE6F92257FF09C0509540953095219544
:105870003F4F4F4F5F4FE0E8FE2ACA01B901A10137
:105880002AE030E00E944D2DD82ED21840C0953726
:1058900029F41F2D1F7E2AE030E01DC01F2D197F27
:1058A0009F3661F0903720F4983509F0ACC00FC0F6
:1058B000903739F0983709F0A6C004C028E030E0EE
:1058C0000AC0106114FD146020E130E004C014FD32
:1058D000166020E132E017FF08C0F5016081718198
:1058E0008281938144E050E008C0F501808191817C
:1058F000BC0180E090E042E050E0A40EB51EA101A2
:105900000E944D2DD82ED2188FE7F82EF122F6FEE8
:105910000BC05EEFF522D91438F4F4FE07C0F2FC98
:1059200005C08FEEF82202C01D2D01C0192DF4FE16
:105930000DC0FE01ED0DF11D8081803319F499EE4B
:10594000F92208C01F5FF2FE05C003C08F2D8678C4
:1059500009F01F5F0F2DF3FC14C0F0FE0FC01E15E1
:1059600010F09D2C0BC09D2C9E0C911A1E2D06C074
:1059700080E290E0B3010E94212D1F5F1E15C0F34D
:1059800004C01E1510F4E11A01C0EE2404FF0FC07C
:1059900080E390E0B3010E94212D02FF1DC001FDB4
:1059A00003C088E790E00EC088E590E00BC0802F30
:1059B000867891F001FF02C08BE201C080E2F7FC23
:1059C0008DE290E0B3010E94212D06C080E390E0BB
:1059D000B3010E94212D9A94D914C0F3DA94F101F5
:1059E000ED0DF11D808190E0B3010E94212DDD209D
:1059F000A9F706C080E290E0B3010E94212DEA944D
:105A0000EE20C1F743CEF30166817781CB012B965F
:105A1000E2E10C942F2EFC010590615070400110C2
:105A2000D8F7809590958E0F9F1F0895FC016150C7
:105A3000704001900110D8F7809590958E0F9F1FB0
:105A400008950F931F93CF93DF938C01EB018B810C
:105A500081FF1BC082FF0DC02E813F818C819D8103
:105A60002817390764F4E881F9810193F983E88301
:105A700006C0E885F985802F0995892B31F48E8140
:105A80009F8101969F838E8302C00FEF1FEFC80195
:105A9000DF91CF911F910F910895FA01AA27283025
:105AA00051F1203181F1E8946F936E7F6E5F7F4FEB
:105AB0008F4F9F4FAF4FB1E03ED0B4E03CD0670F67
:105AC000781F891F9A1FA11D680F791F8A1F911DBA
:105AD000A11D6A0F711D811D911DA11D20D009F40A
